:020000040800F2
:10000000F00F0020ED7A0008754F0008F77A00081D
:10001000774F00087B4F00087F4F0008000000006A
:10002000000000000000000000000000834F0008F6
:10003000854F000800000000037B0008874F000880
:10004000077B0008077B0008077B0008077B000888
:10005000077B0008077B0008077B0008077B000878
:10006000077B0008077B0008077B0008077B000868
:10007000077B0008077B0008077B0008077B000858
:10008000077B0008077B0008077B0008077B000848
:10009000077B0008077B0008077B0008077B000838
:1000A000077B0008077B0008077B0008077B000828
:1000B000077B0008077B0008077B0008077B000818
:1000C000077B0008077B0008077B0008077B000808
:1000D000077B00088F4F0008077B0008914F00083E
:1000E000077B0008077B0008077B000800F002F888
:1000F00000F03CF80AA090E8000C82448344AAF186
:100100000107DA4501D100F031F8AFF2090EBAE883
:100110000F0013F0010F18BFFB1A43F0010318473B
:10012000F89C0000189D0000103A24BF78C878C1E0
:10013000FAD8520724BF30C830C144BF04680C60ED
:10014000704700000023002400250026103A28BF35
:1001500078C1FBD8520728BF30C148BF0B60704739
:100160001FB507F0E7FC1FBD10B510BD07F008FD77
:100170001146FFF7F5FF00F009F807F026FD03B47C
:10018000FFF7F2FF03BC07F027FD000003F015F9AD
:10019000064802F00DFD064801F0CDFC054801F0CF
:1001A00093FE01E002F07AFFFCE700003A00002035
:1001B00000020020BC0400200122C272704710B56A
:1001C0000446607B00B338480078401C364908700C
:1001D00008460078012804D0052809D00A2812D141
:1001E0000DE0324803F081FE304803F07FFE0AE064
:1001F0002E4803F07CFE2D4803F07AFE03E0002039
:100200002949087000BF49E0607AE0B1207BD0B98D
:1002100025480078401C24490870084600780128C9
:1002200004D0142806D028280CD107E01F4803F07A
:100230005CFE07E01D4803F05AFE03E000201A4967
:10024000087000BF2AE0607A10B3207B00B3184822
:100250000078401C1649087008460078012804D030
:10026000142809D0282812D10DE0104803F03DFED3
:100270000E4803F03DFE0AE00C4803F038FE0B4840
:1002800003F034FE03E000200949087000BF05E0D8
:10029000064803F02AFE054803F028FE10BD00B50D
:1002A0000448FFF789FF00BD000000205C0000202B
:1002B00001000020B400002070B504460E4615462B
:1002C0002A4604F10F01FE4804F0E0FA70BD2DE962
:1002D000F04104460D461646AA20E073AA21217477
:1002E000EF2161740221A174E574267500270020B6
:1002F00006E004F10F01095C3944CFB2411CC8B2D9
:100300000628F6DB6775082204F10F012046FFF787
:10031000D3FFBDE8F0812DE9F04F87B005460C46CC
:100320001646002701200690002004E0215C394495
:10033000CFB2411CC8B2711E8142F7DCA01910F87F
:10034000010CB84202D007B0BDE8F08F2078AA288F
:1003500002D16078AF2800D0F5E70021D94881723A
:10036000A078012811D12079012801D1D64908703F
:100370002079022802D10120D3494870207903282E
:1003800003D10120D04908704870A078022816D106
:100390002079012805D128716871A871E871287247
:1003A00068722079A02801D1012028702079A12825
:1003B00005D1C64801F0BAFAC54802F0E0FAA078C3
:1003C00003287CD12079617941EA0020C149C880A5
:1003D000A079E17941EA0020BE498880207A617ADB
:1003E00041EA0020BB490880A07AE17A41EA002076
:1003F000B8494880207B617B41EA0020B5490881EB
:10040000A07BE17B41EA0020B2494881207C617CED
:1004100041EA0020AF498881A07CE17C41EA0020CC
:10042000AC49C8810698002861D008460088A0F22F
:10043000DC5908464088A0F2DC58A749886802F0D9
:10044000E8FE029007F092FD8246484609F012F954
:100450008346514609F06EF99F490490886802F07E
:10046000D8FE019008F052F98346404609F002F99F
:100470005946029009F05EF98246984909F088FAD7
:100480000390049908F026FF059009F0D3F89149EC
:1004900008809149886802F0BCFE029008F036F9A5
:1004A0000490484609F0E6F80390049909F042F9EF
:1004B00089490590886802F0ACFE019000E016E0E2
:1004C00007F054FD0390404609F0D4F802900399D8
:1004D00009F030F98149049008F0FCFE8346059943
:1004E00008F0F8FE824609F0A5F87A494880A0781D
:1004F00010287DD12179090209B2627941EA02000E
:1005000009F0B8F88246764908F058FF6F4908604C
:10051000A179090209B2E27941EA020009F0AAF8D8
:1005200082466F4908F04AFF68494860217A09020B
:1005300009B2627A41EA020009F09CF882466849F1
:1005400008F03CFF61498860A17A090209B2E27AA9
:1005500041EA020009F08EF88246614908F02EFF58
:100560005A49C861217B090209B2627B41EA020053
:1005700009F080F882465A4908F020FF5349086282
:10058000A17B090209B2E27B41EA020009F072F89C
:100590008246534908F012FF4C494862217C090207
:1005A00009B2627C41EA020009F064F882464C49D3
:1005B00008F004FF45498863A17C090209B2E27C86
:1005C00041EA020009F056F88246454908F0F6FE75
:1005D0003E49C863217D090209B2627D41EA0200F9
:1005E00009F048F882463E4908F0E8FE374900E045
:1005F00005E00864A1783A462846FFF768FEA0782F
:1006000011286FD12179090209B2627941EA020009
:1006100009F030F88246324908F0D0FE2B4948658F
:10062000A179090209B2E27941EA020009F022F84F
:1006300082462B4908F0C2FE24498865217A0902C6
:1006400009B2627A41EA020009F014F882462449AC
:1006500008F0B4FE1D49C865A17A090209B2E27A20
:1006600041EA020009F006F882461D4908F0A6FE9C
:1006700016490867217B090209B2627B41EA020040
:1006800008F0F8FF8246164908F098FE0F494867BF
:10069000A17B090209B2E27B41EA020008F0EAFF0D
:1006A00082460F4908F08AFE08498867217C0902C2
:1006B00009B2627C41EA020008F0DCFF824612E0E7
:1006C0005C060020B4000020DC05002008010020AA
:1006D0003A00002090050020000200200080BB446A
:1006E00000007A4428E0FE4908F068FEFD49C1F8A0
:1006F0008C00A17C090209B2E27C41EA020008F008
:10070000B9FF8246F64908F059FEF649C1F8900053
:10071000217D090209B2627D41EA020008F0AAFFC8
:100720008246EF4908F04AFEEE49C1F89400A178EC
:100730003A462846FFF7CBFDA078122834D121791C
:10074000090209B2627941EA020008F093FF824689
:10075000E34908F033FEE349C1F8A800A179090292
:1007600009B2E27941EA020008F084FF8246DC49DE
:1007700008F024FEDB49C1F8AC00217A090209B275
:10078000627A41EA020008F075FF8246D44908F017
:1007900015FED449C1F8B000A1783A462846FFF7C3
:1007A00096FDD14802F0EBF8A078132804D1A17887
:1007B0003A462846FFF78BFDA078142804D1A1788B
:1007C0003A462846FFF783FDA078152804D1A17882
:1007D0003A462846FFF77BFD00BFB4E510B5044656
:1007E000C24804F0D0F810BD2DE9FC5F04460E4667
:1007F00017469846DDE90CAB0025AA2229466D1C58
:1008000004F10F00425429466D1C425406F10F00BA
:10081000C2B229466D1C04F10F0042540022294641
:100820006D1C4254AE49384608F084FF009008F031
:10083000BBFE00B201909DF8052029466D1C04F115
:100840000F0042549DF8042029466D1C4254A449CF
:10085000404608F06FFF009008F0A6FE00B201903D
:100860009DF8052029466D1C04F10F0042549DF8A7
:1008700004202846691CCDB204F10F010A5498499E
:10088000504608F057FF009008F08EFE00B201902D
:100890009DF805202846691CCDB204F10F010A54C9
:1008A0009DF804202846691CCDB204F10F010A54BA
:1008B0008B49584608F03EFF009008F075FE00B2E4
:1008C00001909DF805202846691CCDB204F10F0166
:1008D0000A549DF804202846691CCDB204F10F018A
:1008E0000A547F490E9808F025FF009008F05CFE3E
:1008F00000B201909DF805202846691CCDB204F194
:100900000F010A549DF804202846691CCDB204F159
:100910000F010A5472490F9808F00CFF009008F07C
:1009200043FE00B201909DF805202846691CCDB217
:1009300004F10F010A549DF804202846691CCDB229
:1009400004F10F010A546649109808F0F3FE009074
:1009500008F02AFE00B201909DF805202846691C87
:10096000CDB204F10F010A549DF804202846691CF9
:10097000CDB204F10F010A545949119808F0DAFE7A
:10098000009008F011FE00B201909DF80520284665
:10099000691CCDB204F10F010A549DF804202846C9
:1009A000691CCDB204F10F010A544D49129808F0A8
:1009B000C1FE009008F0F8FD00B201909DF80520FE
:1009C0002846691CCDB204F10F010A549DF8042099
:1009D0002846691CCDB204F10F010A54281FA074E7
:1009E0004FF00009002007E004F10F01095C4944C1
:1009F00001F0FF09411CC8B2A842F5DB2846691C7A
:100A0000CDB204F10F0101F800902A462046FFF70D
:100A100053FCBDE8FC9F2DE9F84304460E461746FB
:100A20000025AA2229466D1C04F10F0042542946D4
:100A30006D1C4254052229466D1C42540022294651
:100A40006D1C425400969DF8012029466D1C4254AD
:100A50009DF8002029466D1C425400979DF8012006
:100A600029466D1C42549DF800202846691CCDB2D1
:100A700004F10F010A54281FA0744FF00008002051
:100A800007E004F10F01095C414401F0FF08411C3B
:100A9000C8B2A842F5DB2846691CCDB204F10F01AB
:100AA00001F800802A462046FFF706FCBDE8F883DF
:100AB0007FB504460025AA2229466D1C04F10F00CB
:100AC000425429466D1C4254062229466D1C42544C
:100AD000002229466D1C42549DF80520294607E056
:100AE00000007A44080100203A0000205C06002043
:100AF0006D1C42549DF8042029466D1C42549DF8FB
:100B0000092029466D1C42549DF808202846691C7E
:100B1000CDB204F10F010A549DF80D202846691C3E
:100B2000CDB204F10F010A549DF80C202846691C2F
:100B3000CDB204F10F010A549DF821202846691C0A
:100B4000CDB204F10F010A549DF820202846691CFB
:100B5000CDB204F10F010A549DF825202846691CE6
:100B6000CDB204F10F010A549DF824202846691CD7
:100B7000CDB204F10F010A549DF829202846691CC2
:100B8000CDB204F10F010A549DF828202846691CB3
:100B9000CDB204F10F010A549DF82D202846691C9E
:100BA000CDB204F10F010A549DF82C202846691C8F
:100BB000CDB204F10F010A549DF831202846691C7A
:100BC000CDB204F10F010A549DF830202846691C6B
:100BD000CDB204F10F010A54281FA0740026002092
:100BE00006E004F10F01095C3144CEB2411CC8B2E9
:100BF000A842F6DB2846691CCDB204F10F010E5461
:100C00002A462046FFF758FB7FBD7FB504460025E6
:100C1000AA2229466D1C04F10F00425429466D1C7E
:100C20004254032229466D1C4254002229466D1C61
:100C300042549DF8052029466D1C42549DF804201D
:100C400029466D1C42549DF8092029466D1C4254CA
:100C50009DF808202846691CCDB204F10F010A5402
:100C60009DF80D202846691CCDB204F10F010A54ED
:100C70009DF80C202846691CCDB204F10F010A54DE
:100C80009DF821202846691CCDB204F10F010A54B9
:100C90009DF820202846691CCDB204F10F010A54AA
:100CA0009DF825202846691CCDB204F10F010A5495
:100CB0009DF824202846691CCDB204F10F010A5486
:100CC0009DF829202846691CCDB204F10F010A5471
:100CD0009DF828202846691CCDB204F10F010A5462
:100CE0009DF82D202846691CCDB204F10F010A544D
:100CF0009DF82C202846691CCDB204F10F010A543E
:100D00009DF831202846691CCDB204F10F010A5428
:100D10009DF830202846691CCDB204F10F010A5419
:100D20009DF835202846691CCDB204F10F010A5404
:100D30009DF834202846691CCDB204F10F010A54F5
:100D40009DF839202846691CCDB204F10F010A54E0
:100D50009DF838202846691CCDB204F10F010A54D1
:100D6000281FA0740026002006E004F10F01095C92
:100D70003144CEB2411CC8B2A842F6DB2846691CF9
:100D8000CDB204F10F010E542A462046FFF794FA23
:100D90007FBD2DE9F84304460E4617460025AA22DA
:100DA00029466D1C04F10F00425429466D1C425423
:100DB000072229466D1C4254002229466D1C4254CC
:100DC00000969DF8032029466D1C42549DF8022090
:100DD00029466D1C42549DF8012029466D1C425441
:100DE0009DF800202846691CCDB204F10F010A5479
:100DF00000979DF801202846691CCDB204F10F012F
:100E00000A549DF800202846691CCDB204F10F0158
:100E10000A54281FA0744FF00008002007E004F1D6
:100E20000F01095C414401F0FF08411CC8B2A8420F
:100E3000F5DB2846691CCDB204F10F0101F80080F2
:100E40002A462046FFF738FABDE8F8832DE9F84F27
:100E500004460E4617469846DDE90AAB0025AA224D
:100E600029466D1C04F10F00425429466D1C425462
:100E7000022229466D1C4254002229466D1C425410
:100E800000969DF8012029466D1C42549DF80020D3
:100E900029466D1C425400979DF8012029466D1C7F
:100EA00042549DF800202846691CCDB204F10F0180
:100EB0000A54CDF800809DF801202846691CCDB267
:100EC00004F10F010A549DF800202846691CCDB298
:100ED00004F10F010A54CDF800A09DF80120284626
:100EE000691CCDB204F10F010A549DF80020284678
:100EF000691CCDB204F10F010A54CDF800B09DF881
:100F000001202846691CCDB204F10F010A549DF856
:100F100000202846691CCDB204F10F010A540C9838
:100F200000909DF801202846691CCDB204F10F0104
:100F30000A549DF800202846691CCDB204F10F0127
:100F40000A540D9800909DF801202846691CCDB2E6
:100F500004F10F010A549DF800202846691CCDB207
:100F600004F10F010A540E9800909DF801202846C4
:100F7000691CCDB204F10F010A549DF800202846E7
:100F8000691CCDB204F10F010A540F9800909DF82E
:100F900001202846691CCDB204F10F010A549DF8C6
:100FA00000202846691CCDB204F10F010A54281F05
:100FB000A0744FF00009002007E004F10F01095C64
:100FC000494401F0FF09411CC8B2A842F5DB28469C
:100FD000691CCDB204F10F0101F800902A462046A9
:100FE000FFF76AF9BDE8F88F2DE9FE4F04460E467B
:100FF00017469846DDE90CAB0025CDF804A0AA22DF
:1010000029466D1C04F10F00425429466D1C4254C0
:10101000012229466D1C4254002229466D1C42546F
:10102000FE49304608F086FB009008F0BDFA00B299
:1010300002909DF8092029466D1C04F10F004254CE
:101040009DF8082029466D1C4254F449384608F0A2
:1010500071FB009008F0A8FA00B202909DF80920F8
:1010600029466D1C04F10F0042549DF808202846C3
:10107000691CCDB204F10F010A54E849404608F05A
:1010800059FB009008F090FA00B202909DF80920F8
:101090002846691CCDB204F10F010A549DF80820BE
:1010A0002846691CCDB204F10F010A549DF80720AF
:1010B0002846691CCDB204F10F010A549DF80620A0
:1010C0002846691CCDB204F10F010A549DF8052091
:1010D0002846691CCDB204F10F010A549DF8042082
:1010E0002846691CCDB204F10F010A542846691C38
:1010F000CDB204F10F0101F800B029466A1CD5B247
:1011000004F10F020E985054281FA0744FF00009EC
:10111000002007E004F10F01095C494401F0FF09D8
:10112000411CC8B2A842F5DB2846691CCDB204F1C7
:101130000F0101F800902A462046FFF7BDF8BDE8F0
:10114000FE8F2DE9FF4104460E460025AA222946BE
:101150006D1C04F10F00425429466D1C42540022BC
:1011600029466D1C425429466D1C425429466D1C6B
:1011700046549DF8092029466D1C42549DF80820CC
:1011800029466D1C42549DF80D202846691CCDB29D
:1011900004F10F010A549DF80C202846691CCDB2B9
:1011A00004F10F010A549DF829202846691CCDB28C
:1011B00004F10F010A549DF828202846691CCDB27D
:1011C00004F10F010A549DF82D202846691CCDB268
:1011D00004F10F010A549DF82C202846691CCDB259
:1011E00004F10F010A54281FA0740027002006E014
:1011F00004F10F01095C3944CFB2411CC8B2A842C6
:10120000F6DB2846691CCDB204F10F010F542A46C3
:101210002046FFF751F8BDE8FF812DE9F04788B07F
:1012200004467F4800787F49097890FBF1F201FB82
:1012300012017C480078401E814201D10120A0703B
:10124000774800787849097890FBF1F201FB1201A8
:1012500075480078401E814201D10120E07070483D
:1012600000787249097890FBF1F201FB12016F4896
:101270000078401E814201D10120607368480078E7
:101280006B49097890FBF1F201FB12016848007884
:10129000401E814201D1012060706148007865499B
:1012A000097890FBF1F201FB120162480078401EC0
:1012B000814201D10120A072594800785E49097825
:1012C00090FBF1F201FB12015B480078401E814265
:1012D00001D101202073524800785849097890FBC9
:1012E000F1F201FB120155480078401E814201D104
:1012F0000120A0734A480078401C494908702078B2
:1013000068B1002020704FF4C8716E234FF49672BC
:10131000CDE9001001212046FFF713FF44E160787A
:10132000A8B1002060704649086B08F03DF90546F9
:101330004448407A4349097BCDE900510290424834
:101340008368426801682046FFF74EFE2CE1607B0F
:1013500010B10020607327E1A07880B30020A07056
:101360003949486908F020F905B23749086908F099
:101370001BF906B23449C86808F016F907B23249B9
:10138000C86A08F011F90FFA80F82F49886A08F046
:101390000BF90FFA80F92C49486A08F005F90FFAA1
:1013A00080FA0020CDE90250049043464A46514657
:1013B000CDE9007605902046FFF748FDF4E0FFE711
:1013C000E078A0B10020E0701D48806800EBC00309
:1013D00003EB00104FF6FF7303EA800218484068E1
:1013E000642300FB03F12046FFF7D3FCDCE0A07A86
:1013F00098B10020A0721548408A1449098A134AFE
:10140000D289124B9B89CDE90332CDE905100F48F3
:10141000418900890D4A52881AE024E00000C84240
:10142000020000200300002009000020040000202A
:101430000500002006000020070000200800002012
:10144000BC040020B4000020000200209005002011
:10145000CDE900200291614803888288C188204636
:10146000FFF7D3FBA0E0207B80B30020207305A909
:101470005B4800F0A8FC00200AE005A931F8101034
:10148000A1F57A7109B205AA22F81010411CC8B260
:101490000628F2DB0022BDF81E0080B2BDF81C1049
:1014A00089B2CDE9020204920191BDF81A0080B21E
:1014B0000090BDF8180083B2BDF8160082B2BDF8E6
:1014C000140081B22046FFF7F3FA6DE0FFE7A07B3E
:1014D00080B10020A07343494348006808F02AF90E
:1014E000064608F0A7F885B2002229462046FFF7F5
:1014F00092FA59E02079E8B1002020713B48016C54
:10150000C06B3A4A926B394B5B6ACDE90332CDE945
:1015100005013648006A3549C969344A9268CDE9FF
:101520000021029031484368012102682046FFF7FC
:101530005BF939E06079F0B1002060712B48D0F898
:101540009420D0F89010D0F88C00284B9B6FCDE9F8
:101550000330CDE905122548416F006F234AD26D53
:10156000CDE9002002912148836D0221426D204681
:10157000FFF73AF918E0A079B0B10020A07103900C
:10158000049005900146024606901848D0F8B00035
:10159000CDE9012100901548D0F8AC300321D0F8F6
:1015A000A8202046FFF720F908B0BDE8F0871049D1
:1015B00009781E290CDD00210D4A11700D49897A28
:1015C00019B901220B498A7202E0002209494A72C4
:1015D00007490978491C064A117070479005002098
:1015E000B00400200000C842500000200801002084
:1015F0000A000020B40000202DE9F04781460C4687
:1016000015462946C34808F095F8804641464FF0F4
:101610007E5007F0D3FE0746214607F05BFE0646E4
:101620003146204607F0CAFEBDE8F0872DE9F84FA5
:101630000F4615461C462946B64808F07BF88146F9
:10164000394608F077F8804641464FF07E5007F063
:10165000B5FE06463146B04808F06CF88246314681
:10166000304608F067F88346514607F033FE81465E
:101670004FF07E5107F02EFE804641464FF07E50DF
:1016800007F09CFE20603146A34808F053F88346DB
:101690003146304608F04EF85946009007F01AFEE1
:1016A00082464FF07E5107F015FE804631469A483B
:1016B00008F040F8314600904FF0804008F03AF8CA
:1016C0008346314608F036F88246009907F002FE5C
:1016D0008146414607F072FE606031468E4808F050
:1016E00029F883463146304608F024F859460090E0
:1016F00007F0F0FD81464FF07E5107F0EBFD80468C
:101700003146304608F016F88246414607F056FE4C
:10171000A060BDE8F88F2DE9F04107460D4614465C
:101720002146284607F0D6FD06463146204607F0FA
:1017300045FEBDE8F0810FB4F0B58DB005460F460B
:101740001A9C224617A904A807F0FCF904A807C8A8
:1017500007AB07C321464FF07E5008F0ABF90646B1
:10176000324614A901A807F0EDF901A807C80AAB91
:1017700007C307AA0AA9284607F000FA0DB0F0BC73
:101780005DF814FB0FB470B59EB005460E461446C6
:101790000FA8002181604160016000BF04F10C01CD
:1017A0000CA8A26807F0CEF90CA807C812AB07C3B3
:1017B00004F1180109A8626807F0C4F909A807C86C
:1017C00015AB07C325A906A8226807F0BBF906A830
:1017D00007C818AB07C315AA18A903A807F0CEF9C4
:1017E00003A807C81BAB07C312AA1BA9684607F0CA
:1017F00071F99DE807000FAB07C3D4E90712A06990
:10180000C4E90412E0600FA807C8C4E90712A06188
:101810000FA807C885E807001EB070BC5DF814FB70
:101820002DE9F05F83460C4615463C48A1680068E8
:1018300007F080FF80463A486168006807F07AFF49
:1018400081462846216807F075FF8246494607F021
:1018500041FD0746414608F02DF90646304800682C
:101860002E4908602E480660304607F09DFEBDE810
:10187000F09F2DE9F05F83460C4615462948A16884
:10188000006807F057FF804627486168006807F046
:1018900051FF81462846216807F04CFF82464946A1
:1018A00007F018FD0746414608F004F906461E48B1
:1018B00000681C4908601C480660304607F074FE4A
:1018C000BDE8F09F0FB4F0B58DB005460F461A9CE9
:1018D00021464FF07E5008F0EDF80646324617A933
:1018E00004A807F02FF904A807C807AB07C32246CE
:1018F00014A901A807F026F901A807C80AAB07C375
:1019000007AA0AA9284607F039F90DB0F0BC5DF81E
:1019100014FB0000DB0FC940000040401000002015
:101920000C000020180000201400002038B50446E8
:101930003D483E4B3E4A11460090204606F08FF946
:1019400039483A4B3A4A1146009004F11C0006F01F
:1019500086F935480023374A3749009004F13800AA
:1019600006F07DF90020034602463449009004F158
:10197000540006F074F90020034602464FF08041FF
:10198000009004F1700006F06AF92D482D4B4FF0DD
:101990007C524FF07F51009004F18C0006F05FF90B
:1019A000214800231A462849009004F1A80006F0B7
:1019B00056F938BD10B5044607231C22234920469A
:1019C00006F074F9044604F1C40007F028F8A0F109
:1019D000C40404F1D00007F022F8A0F1D00404F10F
:1019E000EC0007F01CF8A0F1EC04962004F8DC0FE2
:1019F000322060706420E082DC3C2046FFF796FFD6
:101A0000204610BD10B504461149086B07F0CCFD07
:101A1000C4F8D80010BD704770477047704710B5C4
:101A20000C48FFF7C7FF10BD000048430AD7A33C8E
:101A30009A99193E6666E63ECDCC4C3F0000A04028
:101A4000000016436F12033B9A99993F6D7C000882
:101A5000BC0400200801002010B50446204600BF49
:101A60000446204606F0BEFF044604F10C0006F0D2
:101A7000B9FFA0F10C0404F1180006F0B3FFA0F1C7
:101A8000180404F1240006F0ADFFA0F1240404F1D1
:101A9000300006F0A7FFA0F1300404F13C0006F08E
:101AA000A2F8A0F13C0404F1600006F09CF8A0F15B
:101AB000600404F1880006F0A5F8A0F1880404F59C
:101AC000C87006F09FF8A0F5C87404F527704FF0B1
:101AD0007E5101600021C1608160416000BFA0F5BE
:101AE0002774204610BD10B5044662224FF47A7167
:101AF0007E4802F033FA10BD10B504467C4A7D4999
:101B00002046FFF779FD7C49086004F13C03784AE0
:101B100078492046FFF78AFD04F16003774A75494A
:101B20002046FFF783FD764A72492046FFF7F3FD12
:101B30007149486010BD10B504462046FFF7DCFF30
:101B40002046FFF7D0FF10BD3EB50446674802F0BF
:101B5000D7FA664802F0A7FB6449684602F007FC22
:101B60009DE80700C4E90412E0606049684602F09D
:101B7000F7FB9DE80700C4E90A1260623EBD10B59C
:101B8000059C10BD2DE9F04782460C465D49096869
:101B9000601A07F03BF907465B4A5C4B07F086F991
:101BA000054607F007F88146564804604846BDE8F8
:101BB000F0872DE9F04395B004460EA806F006FF25
:101BC00008A806F003FFD4E90A01CDE9000104F1F9
:101BD0003C02214605A8636AFFF7D4FD05A807C8A3
:101BE000C4E90D122063D4E90401CDE9000104F138
:101BF0006002214605A8E368FFF7C4FD05A807C8F1
:101C0000C4E90712A06104F130052946284606F010
:101C10007DFF81463E4907F08DFD80464FF097419C
:101C200007F0CCFB074607F0BFFCC4F8AC0201F09C
:101C30008FFB054629462046FFF7A4FF0646206A8B
:101C400000902A4905A8D4E9062302F097FB0396E1
:101C5000D4E90D12206B8DE80700204605A90EC9B6
:101C6000FFF78DFF15B0BDE8F0832DE9F0418CB092
:101C700080460C4603AD284606F0B4FE054605F145
:101C80000C0006F0AFFEA0F10C0505F1180006F0FF
:101C9000A9FEA0F1180500BF684606F0A3FE206863
:101CA00001F0B7FA80F00045606801F0B2FA80F008
:101CB0000046A06801F0ADFA07460095019602972C
:101CC00000BF694603A806F0FDFD04F1300203A938
:101CD000404606F0ADFE0CB0BDE8F08110B5059CA5
:101CE00010BD10B50B48FFF7B7FE10BDDC05002096
:101CF000000048426F12033BB40000200000024382
:101D00006666E63F1C0000208DEDB5A0F7C6B03E2C
:101D10000000C842000200200146002005E04FF408
:101D20007A7221F81020421CD0B20628F7DB7047E7
:101D30002DE9F0470446884691469A46089FB4F933
:101D40000060012007E034F91010B14201DD34F9E0
:101D50001060411CC8B20628F5DB002519E040F2EE
:101D60006C70864207DD34F81510A6F26C70081A04
:101D700000B224F8150034F8151088B240F26C72E5
:101D800040F24C4101F01EFA00B224F81500681C24
:101D9000C5B2062DE3DB1248407A10B92046FFF7A2
:101DA000BBFF0F48007B40B90E48C08840F2E241BB
:101DB000884202DA2046FFF7AFFF21460A4802F0C8
:101DC000CCFEBDE8F08702880A8042884A8082887B
:101DD0008A80C288CA8002890A8142894A81704702
:101DE000B4000020900500208300002010B50446B8
:101DF000204600BF044604F1100006F0F3FDA0F1F8
:101E0000100404F11C0006F0EDFDA0F11C0404F127
:101E1000280006F0E7FDA0F1280404F1340006F0E4
:101E2000E1FDA0F1340404F1400006F0DBFDA0F177
:101E3000400404F1500005F0D6FEA0F1500404F176
:101E4000740005F0D0FEA0F1740404F1B40006F0B3
:101E5000C9FDA0F1B4044FF082431A46194604F1BB
:101E6000B40006F0C4FDFE489834A0614FF4802011
:101E7000A062FC4844F89809FB499C200151FB49A9
:101E8000A0200151FA49A4200151FA49A82001518A
:101E9000F949AC200151204610BD10B50446F74861
:101EA00002F0E4FA10BD10B5044604F15003F44A00
:101EB000F4492046FFF7BAFB04F17403F24AF149F2
:101EC0002046FFF7B3FB10BD10B504462046FFF7D0
:101ED000EAFF2046FFF7E1FF10BD01B5AEB017A83D
:101EE00006F080FD14A806F07DFDE84800680A2889
:101EF00003D0E748007802287DD10020E44908702B
:101F00005521E34802F0CEFF0020E049086001F0CF
:101F10001FFAE0490968401A0F9006F077FFDE4A81
:101F2000DE4BCDE9100106F0C1FFCDE9120106F04C
:101F300041FE1A9001F00CFAD64908602E98C0684C
:101F4000129007F097FB024613902E9974312E9849
:101F5000FFF78FFC2E9988602E988068D049096819
:101F6000401A119007F09EFB12901A9907F026FA7A
:101F7000139007F019FB01B22E9841802E988068CB
:101F8000C74908602E98B0F902004FF4FA52514246
:101F9000139001F022F901B22E9841802E98B0F9E9
:101FA00002006421139001F023F901B22E984180C0
:101FB0002E98C068BA490968884205D1B9480078A6
:101FC000401CB849087002E00021B64801702E9804
:101FD000C068B34908602E98806800280FDD2E98ED
:101FE0008068B0F57A7F0ADAAE4800781E2806DAF3
:101FF00001212E9800E006E080F8D01003E00021D7
:102000002E9880F8D010A1480068401C9F490860B5
:10201000A5480068052803D1984802F03CFB09E276
:10202000A14800680A28FAD101F092F99F4909688D
:10203000401A0F9006F0EAFE974A984BCDE910013E
:1020400006F034FFCDE9120106F0B4FD1A9001F05C
:102050007FF996490860002193480160874802F0A3
:102060001AFB864802F033FB129007F003FB02468E
:1020700013902E9950312E98FFF7D2FB2E9948607D
:102080002E984168D0F8C400081A119007F0F2FAAF
:1020900012901A9907F092F9139007F085FA01B29D
:1020A0002E9801802E984168C0F8C4102E98B0F97F
:1020B00000004FF448725142139001F08EF801B2C3
:1020C0002E9801802E98B0F900000A21139001F09B
:1020D0008FF801B22E9801802E9890F8D000002839
:1020E0007ED02E98B0F90200119007F0C3FA12903A
:1020F0002E98406A01461190129807F0DBFC13906D
:10210000169801461290139807F0E4F816902E984E
:10211000D0F8A000014608904FF07E5007F0CAFCAE
:10212000099007F0ABF8CDE90C012E98B0F9020048
:10213000079006F054FE5E4A5E4BCDE9080106F0BA
:10214000B5FECDE90A01DDE90C2306F0AFFECDE9CD
:1021500010012E98D0F8A0000C902E98406A0B9099
:102160000C9907F0E7FA0D9007F088F8CDE90E0119
:10217000DDE9102306F050FDCDE9120106F01AFD4D
:1021800001462E9841622E98D0F8AC000146089086
:102190004FF07E5007F08EFC099007F06FF8CDE904
:1021A0000C012E988068079006F019FE404A414BBA
:1021B000CDE9080106F07AFECDE90A01DDE90C233C
:1021C00006F074FECDE910012E98D0F8AC000C900A
:1021D0002E98006B0B900C9907F0ACFA0D9000E074
:1021E0007AE007F04BF8CDE90E01DDE9102306F0A7
:1021F00013FDCDE9120106F0DDFC01462E980163C6
:102200002E984068039006F0EAFDCDE906012E986D
:102210008068019006F0E3FD254A264BCDE90201D6
:1022200006F044FECDE90401DDE9062306F03CFF9B
:10223000CDE9080106F0BEFC0B9007F01FF81E4A1E
:102240001E4BCDE90C0106F031FECDE910012E98B0
:10225000D0F8CC000D9006F0C2FDCDE90E012FE0C4
:10226000FFCF743ECDCC4C3F52B87E3FA4707D3F33
:102270000AD7A33BF6287C3F3333733F3406002054
:102280000000A0400AD7A33C0000484224000020E0
:1022900084000020300000208DEDB5A0F7C6B03ED0
:1022A0003400002038000020200000202C000020F6
:1022B0009A9999999999B93FFCA9F1D24D62503FE9
:1022C000DDE9102306F0A8FCCDE9120106F058FD67
:1022D0002E99C1F8CC00ADE02E98B0F90000119015
:1022E00007F0C8F912902E98406A01461190129892
:1022F00007F0E0FB1390169801461290139806F031
:10230000E9FF16902E98D0F8A4001190169810901E
:10231000119907F00FFA13902E98D0F89C000146FF
:102320000D904FF07E5007F0C5FB0F902E98B0F93E
:1023300000000D9007F09EF90E900F9907F0FAF942
:1023400011902E98D0F89C000F902E98406A0E9015
:102350000F9907F0EFF91090119906F0BBFF12905A
:10236000139906F0B7FF01462E9841622E98D0F8D7
:10237000A80001460F904FF07E5007F09BFB119094
:102380002E984168D0F8CC0008440F9007F072F9FD
:102390001090119907F0CEF913902E98D0F8A8005C
:1023A00011902E98006B1090119907F0C3F91290BC
:1023B000139906F08FFF01462E9801632E9840680E
:1023C000109007F057F911902E98006B014610906D
:1023D000119807F06FFB0021129007F077FA0DD2E9
:1023E0002E984068119007F045F912902E98006BD6
:1023F00001461190129807F05DFB0EE02E984068A0
:10240000119007F037F912902E98006B0146119049
:10241000129807F04FFB80F000409A49139007F0A4
:1024200055FA07D22E984068139007F023F9014619
:102430002E98016394480068401C9349086000F09E
:1024400087FF92490968401A0F9006F0DFFC904A16
:10245000904BCDE9100106F029FDCDE9120106F0FF
:10246000A9FB1A9000F074FF884908608A4911A8F6
:10247000FFF7FBFB11A807C817AB07C38748407AD3
:1024800008BB2E98D0F8C000C117139000EB9160E4
:1024900081112E98D0F8C000411A2E98C0F8C010B3
:1024A0002E98D0F8C000119007F0E4F81290199817
:1024B00001461190129806F00DFF139007F074F882
:1024C0002E99C1F8C0002E98D0F8C000C117139003
:1024D00000EB91608011119007F0CCF812901998E0
:1024E00001461190129807F053FA19902E98D0F8DF
:1024F000B4000F9007F058F8119017980F9007F05C
:1025000053F81090119900F073FE129007F0B2F892
:1025100013902E98D0F8B00001461290139807F04F
:1025200009F92E9908612E98D0F8B8000F9007F09D
:102530003BF8119018980F9007F036F81090119909
:1025400000F056FE129007F095F880F000401390CE
:102550002E98D0F8B00001461290139807F0EAF8D0
:1025600001462E9841612E98D0F8BC000F9007F0DC
:102570001BF8119019980F9007F016F81090119908
:1025800000F036FE129007F075F813902E98D0F8F0
:10259000B00001461290139807F0CCF801462E982F
:1025A00081612E9A40322E991C3111A806F0E6FA6C
:1025B00011A807C824AB07C324A90EA81A9A06F0CD
:1025C000C1FA0EA807C827AB07C34FF07C5227A952
:1025D0000BA806F0B7FA0BA807C82AAB07C32AA9AD
:1025E0002E98283006F007FA2E98D0E90823C16902
:1025F00040300EC02E9A34322E99103111A806F0B8
:10260000BDFA11A807C81BAB07C31BA90EA81A9ACD
:1026100006F098FA0EA807C81EAB07C34FF07C520D
:102620001EA90BA806F08EFA0BA807C821AB07C39A
:1026300021A92E981C3006F0DEF92E98D0E905234A
:10264000016934300EC02FB000BD10B50446002320
:102650001A46194604F1100006F0C9F900231A467B
:10266000194604F11C0006F0C2F900231A46194667
:1026700004F1280006F0BBF910BD10B50848FFF7BB
:10268000B5FB10BD000048432000002028000020BA
:102690008DEDB5A0F7C6B03E00020020B4000020CA
:1026A000BC04002010B50446FE490888FE4909888C
:1026B00001F01CFA10BD1CB50446FA4908896946A8
:1026C00001F06FF8F74948890DF1020101F069F84E
:1026D000F449888901A901F064F8BDF8000000B24E
:1026E000F2490881BDF8020001B2F0484181BDF80D
:1026F000040001B2ED4881811CBD1CB50446E949C6
:102700004888694601F04DF8E64988880DF10201D4
:1027100001F047F8E349C88801A901F042F8BDF883
:10272000000000B2E1494880BDF8020001B2DF4874
:102730008180BDF8040001B2DC48C1801CBD38B501
:102740000446D849C889694601F02BF8BDF8000055
:1027500006F0A8FF0546D64906F030FED5490860C8
:10276000D049088A694601F01CF8BDF8000006F05F
:1027700099FF0546CE4906F021FECE494860C94979
:10278000488A694601F00DF8BDF8000006F08AFF9E
:102790000546C94906F012FEC6498860C149888AC3
:1027A000694600F0FEFFBDF8000006F07BFF05461D
:1027B000BF4906F003FEBF49C861BA49C88A6946E5
:1027C00000F0EFFFBDF8000006F06CFF0546B849C9
:1027D00006F0F4FDB7490862B249088B694600F07B
:1027E000E0FFBDF8000006F05DFF0546B24906F0C7
:1027F000E5FDB0494862AB49488B694600F0D1FF1E
:10280000BDF8000006F04EFF0546A94906F0D6FDCA
:10281000A8498863A349888B694600F0C2FFBDF8C8
:10282000000006F03FFF0546A14906F0C7FDA1499B
:10283000C8639C49C88B694600F0B3FFBDF800002F
:1028400006F030FF05469C4906F0B8FD994908643A
:102850009449088C694600F0A4FFBDF8000006F01A
:1028600021FF0546924906F0A9FD9249C1F8A8004A
:102870008C49488C694600F094FFBDF8000006F0D2
:1028800011FF05468A4906F099FD8A49C1F8AC0056
:102890008449888C694600F084FFBDF8000006F08A
:1028A00001FF0546844906F089FD8249C1F8B00060
:1028B0007C49C88C694600F074FFBDF8000006F042
:1028C000F1FE05467A4906F079FD7A494865754971
:1028D000088D694600F065FFBDF8000006F0E2FED5
:1028E0000546734906F06AFD724988656D49488D51
:1028F000694600F056FFBDF8000006F0D3FE05461D
:102900006D4906F05BFD6B49C8656649888D69466F
:1029100000F047FFBDF8000006F0C4FE054664491C
:1029200006F04CFD634908675E49C88D694600F0B2
:1029300038FFBDF8000006F0B5FE05465C4906F01C
:102940003DFD5C4948675749088E694600F029FFFC
:10295000BDF8000006F0A6FE0546574906F02EFD1C
:102960005449886738BD10B504462046FFF7E7FE96
:102970002046FFF7C2FE2046FFF79DFE10BD70B552
:1029800005464C4908684A4906F0D4FE064606F05A
:1029900051FE84B24349C889214601F0A7F8454950
:1029A0004868434906F0C6FE064606F043FE84B278
:1029B0003C49088A214601F099F83E4988683E4919
:1029C00006F0B8FE064606F035FE84B23549488A60
:1029D000214601F08BF83749C869354906F0AAFE4F
:1029E000064606F027FE84B22E49888A214601F069
:1029F0007DF83049086A2E4906F09CFE064606F02E
:102A000019FE84B22749C88A214601F06FF8294986
:102A1000486A294906F08EFE064606F00BFE84B28F
:102A20002049088B214601F061F82249886B204932
:102A300006F080FE064606F0FDFD84B21949488B7B
:102A4000214601F053F81B49C86B194906F072FE84
:102A5000064606F0EFFD84B21249888B214601F04C
:102A600045F81449086C144906F064FE064606F061
:102A7000E1FD84B20B49C88B214601F037F80D49BE
:102A8000D1F8A8000A4906F055FE064606F0D2FD28
:102A900084B20449088C214601F028F80549D1F890
:102AA000AC000BE0869C00083C000020DC05002008
:102AB0000000C8420801002000007A445E4906F088
:102AC00039FE064606F0B6FD84B25C49488C2146C4
:102AD00001F00CF85A49D1F8B0005A4906F02AFE24
:102AE000064606F0A7FD84B25449888C214600F0C2
:102AF000FDFF5349486D504906F01CFE064606F09E
:102B000099FD84B24D49C88C214600F0EFFF4C4935
:102B1000886D494906F00EFE064606F08BFD84B22C
:102B20004649088D214600F0E1FF4549C86D4549F9
:102B300006F000FE064606F07DFD84B23F49488D52
:102B4000214600F0D3FF3E49086F3B4906F0F2FDF5
:102B5000064606F06FFD84B23849888D214600F0A4
:102B6000C5FF3749486F344906F0E4FD064606F0D4
:102B700061FD84B23149C88D214600F0B7FF30496C
:102B8000886F304906F0D6FD064606F053FD84B244
:102B90002A49088E214600F0A9FF70BD38B50446C9
:102BA00026490888694600F0FCFDBDF8000038BDE4
:102BB00010B504462046FFF7F1FF234909888842F3
:102BC00002D02046FFF7DBFE2046FFF7CCFE204672
:102BD000FFF768FD10BD10B504461C4A528891B23B
:102BE000164A508800F082FF184A928891B2134A20
:102BF000908800F07BFF154AD28891B20F4AD088A6
:102C000000F074FF10BD10B50446104A128991B24D
:102C10000A4A108900F06AFF0C4A528991B2074AA9
:102C2000508900F063FF094A928991B2034A908962
:102C300000F05CFF10BD00000000C842869C000848
:102C40000801002000007A443C000020DC05002040
:102C500030B50146002013E000FB00F2193A3223A0
:102C60005A4302F6C41242435A4340F6C41392FB3D
:102C7000F3F213B201F11C0222F81030421CD0B260
:102C80000728E9DB00202EE000EB80046400A4F1BB
:102C900032020123002A00DD3223002A00DA322327
:102CA000002503FB03F495FBF4F4643454430A2534
:102CB00094FBF5F404F5FA7425B201F12A0424F822
:102CC000105034F910404FF448756C434FF47A7546
:102CD00094FBF5F404F24C4425B201F12A0424F8E3
:102CE0001050421CD0B20C28CEDB30BD10B50446CB
:102CF0002046FFF7ADFF204610BD2DE9F05F0446EA
:102D0000002060E034F81010A1F2DC51002904DD4D
:102D100034F81010A1F2DC5104E034F8101040F245
:102D2000DC52511AB1F5FA7F10DA34F81010A1F222
:102D3000DC51002904DD34F81010A1F2DC5107E069
:102D400034F8101040F2DC52511A01E04FF4FA71DD
:102D50000E4602281FD0642196FBF1F504F11C01F8
:102D60006A1C31F9122031F91510511A05EBC50210
:102D700002EB0512A6EB82025143642291FBF2F2B0
:102D800004F11C0131F8151011440AB204F11401C8
:102D900021F8102005E071420AB204F1140121F873
:102DA000102034F8101040F2DC52914209DA04F19C
:102DB000140131F8101049420AB204F1140121F84B
:102DC0001020411CC8B203289CDBE0884FF4FA6253
:102DD00040F2E24100F0F6F90646A6F2E2404FF476
:102DE0007A71484340F2EE21B0FBF1F6642096FB85
:102DF000F0F58648007B08BB04F12A00691C30F915
:102E0000111030F91500081A05EBC50101EB051189
:102E1000A6EB81014843642190FBF1F104F12A0003
:102E200030F81500084401B26183E0884FF4FA627B
:102E300040F2E24100F0C6F901B26183B4F9180032
:102E4000002802DDB4F9180002E0B4F9180040428D
:102E5000462833DAE08840F2E24188422EDD6C4AAF
:102E6000D2F89812906806F025FE804606F09CFB8A
:102E700007B217F1B40F02DC07F5B47007B2B42F34
:102E800002DBA7F5B47007B2784207B2384606F005
:102E9000F1FB83465F48016F584606F04BFC8146C4
:102EA000B4F9180006F0E6FB8246494606F002FE39
:102EB000804606F079FB01B2218304E05448806823
:102EC0005349C1F89802BDE8F09F0146002034E064
:102ED00031F81020B2F5617F04DB31F81020B2F533
:102EE000FA6F00DD2BE031F8102040F2E2439A4205
:102EF00007DA494A125C494B1B781A43474B1A7050
:102F000006E0454A135C454A12789A43434B1A70CF
:102F100031F81020B2F5E16F07DD414A125C3F4BFA
:102F20001B781A433D4B1A7006E03D4A135C3B4A3E
:102F300012789A43394B1A70401C0428C8DB00BF32
:102F4000364A12784AB1374A1278FA2A0ADA354AEA
:102F50001278521C334B1A7004E00022314B1A7065
:102F60002E4B1A702F4A1278642A29D1274A527A96
:102F70006AB12A4A127802F01002E2B1274A1278A6
:102F800002F04002BAB10023204A537213E0234AF0
:102F9000127802F0200272B1204A127802F0400248
:102FA0004AB11A4A127A1AB10123184A537202E03E
:102FB00001221D4B5A700022184B1A70194B1A70BF
:102FC00070471A49498900291ADD1849498940F68C
:102FD0003402914214DA15494989002905DD134963
:102FE000498940F2145291420ADB10494989B1F5EE
:102FF000AF6F04DD0D494989B1F5C86F00DB00BF33
:10300000704700B50948FFF771FE00BDB40000200D
:1030100000020020080100207E9C00083F000020E4
:10302000829C00083E000020DC0500209005002066
:1030300010B53848FDF7D2FB3648FEF7EEF810BD64
:1030400010B53548FEF780FD3348FEF7B2FD334832
:10305000FEF7E2FC3248FEF740FF10BD10B52F48E6
:10306000FEF7D9FC10BD10B500F084FA10BD10B504
:103070002C48FFF742FE2B48FFF727FF2948FFF7B0
:10308000A0FF2448FEF793FA2748FDF798F8234855
:10309000FEF7C3FC2148FEF7C1FC10BD10B5234864
:1030A0000088012804DBFFF7C3FF00201F490880C8
:1030B0001E484088022804DBFFF7C2FF00201B499E
:1030C00048801A488088052804DBFFF7C7FF0020E6
:1030D000164988801548C0880A2804DBFFF7C3FF1B
:1030E00000201249C88011480089142804DBFFF72A
:1030F000BEFF00200D49088110BD00210181C18063
:10310000818041800180704700B50848FFF7F5FFD6
:1031100000BD0000C40000200002002008010020C3
:10312000BC04002090050020B4000020D20500203F
:1031300010B50446204604F0B2FD08B1002010BDD1
:103140004FF07E51204606F0C1FB01D86748F6E7F4
:103150006749204606F0BAFA01D86648EFE72046EC
:1031600004F070FEEBE72DE9F04106460C461546EB
:10317000304604F094FD50B12946204606F0AAF8E6
:1031800007464FF07C5106F0D5FABDE8F0812146A4
:10319000304606F09BFA01D22046F6E72946304633
:1031A00006F094FB01D22846EFE73046EDE70346F0
:1031B0008B4201DA08467047934201DD1046FAE778
:1031C0001846F8E703468B4201DA084670479342F7
:1031D00001DD1046FAE71846F8E703468B4201DAAC
:1031E00008467047934201DD1046FAE71846F8E7B3
:1031F000002801DD024600E042428A4201DA002056
:1032000006E0002801DD401A02E0002800DA084448
:10321000704710B504463849204606F08BFA10BDB9
:1032200010B504463549204606F084FA10BD10B5A5
:1032300004462146204606F07DFA10BD2DE9F041F6
:1032400005460C462046FFF7F2FF07462846FFF7E3
:10325000EEFF8046394606F03DF8064605F01CFBB9
:10326000BDE8F0812DE9F05F06460C46154628467C
:10327000FFF7DDFF81462046FFF7D9FF8246304643
:10328000FFF7D5FF8346514606F024F880464946AD
:1032900006F020F8074605F0FFFABDE8F09F2DE99B
:1032A000FE4F07460C4615461E463046FFF7BFFF49
:1032B00002902846FFF7BBFF01902046FFF7B7FFBB
:1032C00000903846FFF7B3FF8346009906F002F8F6
:1032D0008246019905F0FEFF8146029905F0FAFF4A
:1032E000804605F0D9FABDE8FE8F0000DB0FC93F2C
:1032F000000080BFDB0FC9BF34FA8E3CE12E65426F
:1033000000B585B0684602F098FF50490098B0FBC0
:10331000F1F04F49086005B000BD4E480068401C00
:103320004C4908604C480088401C4B4908800846BE
:103330004088401C488008468088401C8880084699
:10334000C088401CC88008460089401C088170471E
:1033500000BF404801684FF0E02082693D480068A6
:103360008142F6D13A48006800EB4003C3EBC0103D
:10337000C2EBC000364B1B68B0FBF3F001EB41031E
:10338000C3EBC11300EBC300704730B50446FFF731
:10339000DFFF054600BFFFF7DBFF401BA042FAD36B
:1033A00030BD10B5044603E04FF47A70FFF7EDFF2F
:1033B0002000A4F10104F7D110BD70B54FF44070A6
:1033C00001F0EEFDFFF79CFF244800684FF47A728D
:1033D000B0FBF2F1481EB0F1807F00D31BE0481E25
:1033E0004FF0E022506150170F22002807DA130730
:1033F0001D0E1B4B00F00F04241F1D5503E0130787
:103400001C0E184B1C5400BF00204FF0E0229061AE
:103410000720106100BF00F084FB01F0E7FB0A22E7
:103420000421114801F0A3F945F6C05001F0E6FA75
:103430004FF4165001F07CFC00F056FD00F094F8BB
:1034400002F08DF900F0CDFA70BD000040420F008F
:103450004000002044000020D2050020A0000020F1
:1034600018ED00E000E400E05C06002008B5012152
:10347000084602F042FF01214FF4017002F04AFFBA
:103480001020ADF8000000208DF803006946614867
:1034900002F084FC08BD00B591B05F4802F016F858
:1034A0005E4806905E480790002008900120099031
:1034B00000200A9080200B9040000C9080000D901E
:1034C00020200E9000020F900020109006A9524874
:1034D00002F09EF80121504802F0C5F8002001904A
:1034E0008DF8080001208DF809004FF4602003904A
:1034F0000020049001208DF8140001A947484C38A1
:1035000001F0E3FD4FF4404002F068FE0523012284
:10351000042142484C3801F070FE01213F484C38EC
:1035200001F00AFE01213D484C3801F0FAFD3B480C
:103530004C3801F018FE00BF38484C3801F018FE36
:103540000028F9D135484C3801F01CFE00BF334843
:103550004C3801F01CFE0028F9D101212F484C38CD
:1035600001F01FFE11B000BD10B5FFF77FFFFFF7A0
:1035700092FF10BD2DE9F84F2948008806F092F817
:10358000009005F07BFE0646264A274B05F08EFC90
:1035900004460D462548006805F070FE0646244A9C
:1035A000244B05F083FC804622462B4605F034FB75
:1035B000824605F0FFFA1D4908604FF08B411B4819
:1035C000006805F0FBFE824605F058FE06464FF007
:1035D0006632194B05F06AFC804600224FF08043AA
:1035E00005F064FC044605F0E5FA14490860084655
:1035F000006805F043FE04460022114B05F01AFC5A
:1036000003D201210F48417302E000210D484173AC
:10361000BDE8F88F00080140080002404C2401403A
:1036200048000020FCA9F1D24D62603F4C00002010
:10363000560E2DB29DEFEF3F66660A405000002007
:1036400000000C40B4000020034606210622F74883
:103650000188F7480288ABB1012B1BD13AB94EF66D
:10366000EE60814201D1002070470120FCE739B9AA
:103670004EF6EE60824201D10120F5E70020F3E72B
:10368000AB20F1E709B90020EEE70AB90120EBE72A
:10369000AB20E9E70020E7E770B50426002401200D
:1036A000FFF7D2FF0446AB2C06D1E04800EB8420A4
:1036B000E0490860AB2070BDDC4800EB8420DD49A8
:1036C0000860601CD949891E01EB80250CE0D948AF
:1036D00000680068401C10B904263046EBE7D54866
:1036E0000068001DD3490860D2480068A842EED3A4
:1036F0008020E0E710B50424CC4802F075F80446B9
:10370000042C01D0204610BD0021C84802F06FF9FA
:103710000446042C01D02046F5E7C54802F064F8C1
:1037200004462046EFE72DE9F04104460F46042504
:103730000026DFF804830120FFF786FF0646AB2E44
:1037400001D1BDE8F081701CB849891E01EB8028C9
:1037500021E0B84800680068401CB8B93946B5484F
:10376000006802F044F90546042D01D02846E8E738
:103770002146B0480068801C02F039F90546AD4882
:103780000068001DAB4908602846DAE7A9480068D0
:10379000001DA8490860A74800684045D9D380208B
:1037A000CFE72DE9F04706460F46002545F255586C
:1037B0004FF001099D4CA2460020FFF745FF05464A
:1037C000AB2D01D1BDE8F087984800EB852A9948D8
:1037D0000068841E0AE0B4F80080B04505D134F8D2
:1037E000020C38804FF0000904E0241F0AF10200A7
:1037F0008442F0D800BF4846E4E72DE9F0474FF097
:10380000060A062600250027A8464FF0FF398748FC
:10381000B0F800A0864806885FEA0A0075D0A0F5D7
:103820006E40EE3858B3A0F58850113800286DD19D
:1038300046B97E4801F0D8FF0446042C1ED020462D
:10384000BDE8F0874EF6EE60864210D1774801F071
:10385000CBFF0446042C01D02046F1E70021744838
:1038600002F0C5F80446042C08D02046E8E7FFF72C
:1038700041FF0446042C01D02046E1E7AEE07EBBC8
:10388000002522E06948C0886C4931F8151088424B
:1038900001D10FFA85F94D4515D0684931F8150069
:1038A0006749FFF77EFF8046B8F1010F0BD06349EF
:1038B00031F8150062490988FFF735FF0746042FE4
:1038C00001D03846BCE7681C85B2192DDADB00212F
:1038D000564802F08CF80446042C02D02046AFE78C
:1038E00007E0534801F080FF0446042C1FD0204617
:1038F000A6E74FF6FF70864212D14D4801F074FFE3
:103900000446042C03D020469AE711E05EE0002133
:10391000464802F06CF80446042C08D020468FE795
:10392000FFF7E8FE0446042C01D0204688E755E066
:1039300036B9FFF7DFFE0446042C46D020467FE769
:103940004FF6FF70864207D1394801F04DFF04461B
:10395000042C3AD0204673E7002523E03448801D2C
:103960000088364931F81510884201D10FFA85F9DF
:103970004D4515D0314931F815003149FFF711FF98
:103980008046B8F1010F0BD02C4931F815002C49B5
:103990000988FFF7C8FE0746042F01D038464FE7D5
:1039A000681C85B2192DD9DB0021214802F01FF8CF
:1039B0000446042C01D0204642E71C4801F014FFC5
:1039C0000446042C01D020463AE707E0FFF792FEB8
:1039D0000446042C01D0204632E700BF00BF04207B
:1039E0002EE710B5FFF709FF0446FFF755FE204606
:1039F00010BD2DE9F84F074689460425DFF830A0B1
:103A0000AAF1010A094800904FF00008002400269E
:103A10004FF0000B0020FFF717FE8046B8F1010FB2
:103A200010D1DFF808A00248009016E0000001085D
:103A30000004010858000020FF070108869C0008C8
:103A400054000020B8F1000F04D1DFF8C4A03148C1
:103A5000009002E0AB20BDE8F88F4EF6EE615046D4
:103A600001F0C5FF0546042D01D02846F3E7FFF716
:103A700013FE49463846FFF756FE0646042E01D08F
:103A80003046E8E700241CE0234830F81400B84230
:103A900015D0214931F814002049FFF782FE8346F2
:103AA000BBF1010F0BD01C4931F814001B490988E8
:103AB000FFF739FE0646042E01D03046CBE7601CE6
:103AC00084B2192CE0DB009801F08EFE0546042D2F
:103AD00001D02846BFE70021504601F088FF054687
:103AE000042D01D02846B6E72846B4E770B5054650
:103AF0000E46002431462846FFF715FE0446802C6A
:103B000004D131462846FFF774FF0446204670BDB5
:103B10000004010800000108869C000854000020F1
:103B2000704708B50121082002F0F4FB4020ADF8F1
:103B3000000003208DF8020014208DF80300694670
:103B4000E84802F02BF98020ADF8000003208DF842
:103B5000020014208DF803006946E24802F01EF9C5
:103B600008BD704700B501464020DE4A143210609F
:103B70000846FFF7F6FF8020DA4A14321060084644
:103B8000FFF7EFFF4020D74A103210600846FFF7DA
:103B9000E8FF8020D34A103210600846FFF7E1FFAB
:103BA00000BD00B501464020CE4A143210600846E0
:103BB000FFF7D7FF8020CB4A103210600846FFF78E
:103BC000D0FF4020C74A103210600846FFF7C9FFF7
:103BD000C4480830006800F0800040B14020C14A6D
:103BE000143210600846FFF7BCFF002000BD4020E3
:103BF000BC4A143210600846FFF7B3FF0120F5E716
:103C000010B5024608231DE04020B64C1434206055
:103C10001046FFF7A6FF01F0800018B18020241F96
:103C2000206003E08020AF4C143420604806010E71
:103C30001046FFF796FF4020AA4C10342060104633
:103C4000FFF78FFF1800A3F10104E3B2DCD140209D
:103C5000A44C1434206010BD00B501468020A14A58
:103C600010321060402010600846FFF77AFF9D4830
:103C70000830006808B9012000E0002000F0800052
:103C800008B1002000BD8020964A1432106008461A
:103C9000FFF767FF93480830006800F0800008B124
:103CA0000020EFE780208F4A143210600846FFF7AB
:103CB00058FF0120E6E7F0B506460F4614461D46BC
:103CC0003046FFF7C9FF08B90020F0BD394630463D
:103CD000FFF796FF3046FFF764FF20B93046FFF745
:103CE00041FF0020F1E721463046FFF789FF3046CB
:103CF000FFF757FF29463046FFF782FF3046FFF7B0
:103D000050FF3046FFF72EFF0120DEE700B50146E9
:103D10004020744A143210600846FFF722FF8020CA
:103D2000704A103210600846FFF71BFF40206D4AB2
:103D3000103210600846FFF714FF4020694A143221
:103D400010600846FFF70DFF00BD10B502460823BE
:103D500000218020634C1034206016E04806010EDC
:103D60004020604C143420601046FFF7FAFE4020DB
:103D7000241F20601046FFF7F4FE5A480830006800
:103D800000F0800008B141F001011800A3F1010426
:103D9000E3B2E3D14020534C14342060084610BDF8
:103DA000F0B506460C4615463046FFF755FF08B9F4
:103DB0000020F0BD21463046FFF722FF3046FFF7D6
:103DC000F0FE20B93046FFF7CDFE0020F1E729468E
:103DD0003046FFF715FF3046FFF7E3FE3046FFF7AA
:103DE0003BFF601CC1B23046FFF70AFF3046FFF7C9
:103DF000D8FE3046FFF7A9FF07463046FFF786FF9B
:103E00003046FFF7AFFE3846D3E700B50146402005
:103E1000344A143210600846FFF7A3FE8020314A6E
:103E2000143210600846FFF79CFE40202D4A1032E5
:103E300010600846FFF795FE40202A4A14321060B1
:103E40000846FFF78EFE00BD2DE9F04381460E4681
:103E500017461C46DDF81C80B8F1010F02DA00207D
:103E6000BDE8F0834846FFF7F7FE08B90020F7E702
:103E700031464846FFF7C4FE4846FFF792FE20B998
:103E80004846FFF76FFE0020EAE739464846FFF74D
:103E9000B7FE4846FFF785FE4846FFF7DDFE701C7B
:103EA000C1B24846FFF7ACFE4846FFF77AFE01254F
:103EB00009E04846FFF749FF04F8010B4846FFF7C1
:103EC000A4FF681CC5B24545F3DB4846FFF73DFF3C
:103ED00004F8010B4846FFF719FF4846FFF742FE7A
:103EE0000120BDE7000C01407047704770477047E4
:103EF0007047000010B504462046FFF711FE044647
:103F0000A01C04F08CFD841E04F1080004F087FD61
:103F1000A0F1080404F11C0004F064FDA0F11C04ED
:103F200004F1280004F05EFDA0F1280404F134003F
:103F300004F058FDA0F13404204610BD30B503460E
:103F4000C822002007E000BF1400A2F10105AAB2B8
:103F5000FAD1441CE0B28842F5DB30BD2DE9F041D6
:103F600007460D4616462A2E15D006DC052E0CD027
:103F70000A2E0CD0142E16D10BE0622E0DD0BC2EC2
:103F80000DD0B6F5807F0ED10BE006240DE00524A0
:103F90000BE0042409E0032407E0022405E00124E7
:103FA00003E0002401E0022400BF00BF80236B2255
:103FB000D0213846FFF77FFE05213846FFF7BEFFC8
:103FC0004FF47A7090FBF5F0401E00F0FF08434676
:103FD0001922D0213846FFF76EFE03236B22D02131
:103FE0003846FFF768FE02233722D0213846FFF714
:103FF00062FE23461A22D0213846FFF75CFE1823C2
:104000001B22D0213846FFF756FE10231C22D02158
:104010003846FFF750FEBDE8F0812DE9F041044637
:10402000207800286AD0EA48007800F0010048B9FA
:10403000E74803F04DFE28B1E64804F0D3FCE4481D
:10404000AFF30080E448008880B900231A4619467F
:10405000A01C04F0E9FC00231A461946DD4804F0D0
:10406000C6FC0120DC490880BDE8F08104F11C0198
:10407000D84804F0C0FCD8480088C82839D1D648B0
:10408000008805F00FFB0646D2490868314605F066
:1040900095F9054605F088FA00B26080CE480088A0
:1040A00005F000FB0646CB494868314605F086F925
:1040B000054605F079FA01B2A180C748008805F0ED
:1040C000F1FA0746C3498868394605F077F906468C
:1040D0004FF08B4105F0EEFC054605F065FA01B2A4
:1040E000E1800020BC4908802070BC48FEF773FDC9
:1040F000BAE7B9480088401CB749088000BFB3E759
:104100002DE9FC4104463C22D0212046FFF748FE21
:10411000A0733B22D0212046FFF742FEE073A17B33
:10412000E07B41EA00206188401A00B2ADF800004F
:104130003E22D0212046FFF733FE20743D22D021BD
:104140002046FFF72DFE6074217C607C41EA00214F
:10415000A088081A00B2ADF802004022D021204603
:10416000FFF71EFEA0743F22D0212046FFF718FE65
:10417000E074A17CE07C41EA0021E088081A00B2EA
:10418000ADF80400BDF9040005F074FA0546BDF968
:10419000020005F06FFA0646BDF9000005F06AFA64
:1041A00007462B463246394604F11C0004F01FFC3A
:1041B0002046FFF732FFBDE8FC8170B50446607809
:1041C00000286ED08648007800F0010048B9844885
:1041D00003F07EFD28B1834804F004FC8048AFF36F
:1041E00000808148008880B900231A46194604F1EE
:1041F000080004F019FC00231A461946794804F017
:10420000F6FB01207849088070BD04F1280175484B
:1042100004F0F1FB74480088C8283DD1724800883A
:1042200005F040FA06466F490868314605F0C6F8C1
:10423000054605F0B9F900B220816B48008805F009
:1042400031FA064667494868314605F0B7F8054631
:1042500005F0AAF901B261816348008805F022FAED
:10426000064660498868314605F0A8F8054605F01D
:104270009BF901B2A18100205B49088060705B4816
:10428000007A28B901215948417201205749087222
:104290005248FEF7B8FCB7E753480088401C524923
:1042A000088000BFB0E72DE9FC4104464422D0213C
:1042B0002046FFF775FD20754322D0212046FFF7E9
:1042C0006FFD6075217D607D41EA00202189401AE3
:1042D00000B2ADF800004622D0212046FFF760FD75
:1042E000A0754522D0212046FFF75AFDE075A17D3B
:1042F000E07D41EA00216089081A00B2ADF80200B1
:104300004822D0212046FFF74BFD20764722D021BE
:104310002046FFF745FD6076217E607E41EA002160
:10432000A089081A00B2ADF80400BDF9040005F038
:10433000A1F90546BDF9020005F09CF90646BDF954
:10434000000005F097F907462B463246394604F13E
:10435000280004F04CFB2046FFF72FFFBDE8FC814E
:1043600010B5D1E90834CA6980E81C0010BD10B549
:10437000D1E90B348A6A80E81C0010BD0FB470B517
:1043800005460C461A49069805F0D4F90646FEF78C
:1043900040FF60631649079805F0CCF90646FEF722
:1043A00038FFA0631249089805F0C4F90646FEF7E5
:1043B00030FFE063D4E90E12606B85E8070070BC43
:1043C0005DF814FB10B50B48FFF794FD10BD00001D
:1043D000600000201C060020640000203A0000203D
:1043E00068000020280600206C000020B400002097
:1043F0008DC1793DDC05002010B50446012358220B
:10440000EE212046FFF757FC10BD7CB50546002085
:1044100001900026002418E002200090A02000EB6C
:104420004400C2B201ABEE212846FFF70DFD304437
:10443000C6B29DF805009DF8041040EA012105F17F
:10444000100020F81410601CC4B2082CE4DB082E05
:1044500001D101207CBD0020FCE710B504460123FA
:104460001E22EE212046FFF726FC10BD10B50446A3
:104470000A20FEF796FF2046FFF7EFFF0320FEF726
:1044800090FF2046FFF7C1FF2046FFF7B5FF10BDA4
:1044900010B5044601234822EE212046FFF70BFC0D
:1044A00010BD38B50446032004F120030022EE219C
:1044B00000902046FFF7C8FC38BD2DE9F04F8BB0C7
:1044C00004464FF00008C14694F820000104212062
:1044D000005D41EA00202221095D0843A06094F8B4
:1044E000230001042420005D41EA00202521095D0C
:1044F0000843E060608BA168A1EB0025A08A00045E
:104500000022218B4FEAE57CA1FB05BE02FB05E3FF
:1045100001FB0C334FEADB1141EA4361401842EBE7
:10452000E312CDE90802608A4FEAC0304246E18AD0
:104530004FEAE57CA1FB05BE02FB05E301FB0C3362
:104540004FEA1B2141EA0361401842EB2322CDE9E7
:104550000602A08B42464FEAE573A0FB051C02FB56
:1045600005C200FB03204FEA402242EAD1504FF43B
:10457000FA614718B7F5FA6F19DAA7F5FA667643C4
:1045800006EB86004FEA600806EB86004FEAA009BA
:10459000544887420BDA07F2DC567643072000FBCB
:1045A000068806EB460000EBC60009EB6009DDE972
:1045B0000801B0EB080061EBE871CDE90801DDE925
:1045C0000601B0EB090061EBE971CDE906014FF09E
:1045D0000003E168DDE9062CA1FB020B03FB02B23C
:1045E00001FB0C224FEA505141EAC22C4FEA6251C2
:1045F000DDE90802BCEB000061EB0201C00B40EA00
:10460000414A504605F036F83749019004F0D6FE8D
:104610008346364802905846029903F069FD4FF0F0
:104620007E51039005F0B4F93149049005F082F809
:10463000059004F0B9FF8246606818B16068AAEB83
:10464000000020602B480078B0B12A480078401E56
:104650002849087008460078C82804DA2648006807
:104660005044254908602348007828B9224800684A
:10467000C72190FBF1F060600BB0BDE8F08F38B55A
:104680000446032004F123030022EE21009020467B
:10469000FFF7DAFB38BD10B504461848006860B172
:1046A0002046FFF7ECFF2046FFF7A6FE2046FFF767
:1046B00004FF00201149086008E02046FFF7F1FEE2
:1046C0002046FFF7E5FE01200C49086010BD0146B9
:1046D0000868704710B50A4C2046FFF721FA0446D7
:1046E00000BF10BD24FAFFFF80E6C547B1DC423EA3
:1046F000D048874A78000020740000207000002015
:10470000340600202DE9F04105460E4614462846A1
:1047100000F000FB3146284600F0CAFA0746214661
:10472000284600F0C5FA284600F0ECFA3846BDE805
:10473000F0812DE9F0470746884615461E46384663
:1047400000F0E8FA4146384600F0B2FA814600240B
:1047500005E0295D384600F0ABFA601CC4B2B442F3
:10476000F7DB384600F0CEFA4846BDE8F08770B572
:1047700005460C461646284600F0BCFA05239C4A1E
:104780002A212846FFF7D5FF05239A4A30212846DB
:10479000FFF7CFFF012221212846FFF7B3FF0122B7
:1047A00022212846FFF7AEFF1A2224212846FFF7D0
:1047B000A9FF324625212846FFF7A4FF0F22262114
:1047C0002846FFF79FFF012C0AD1FF2231212846FE
:1047D000FFF798FF0F2220212846FFF793FF51E0B3
:1047E000022C0AD1FF2231212846FFF78BFF0E222F
:1047F00020212846FFF786FF44E0032C21D1FF2229
:10480000E1212846FFF77EFFFF22E2212846FFF73D
:1048100079FF0F2220212846FFF774FF50212846F8
:1048200000F046FA7321284600F042FA01223C21AA
:104830002846FFF767FF06223D212846FFF762FF63
:1048400020E00E2220212846FFF75CFFFF22E12115
:104850002846FFF757FFFF22E2212846FFF752FFC5
:104860005021284600F024FA7321284600F020FA4F
:1048700001223C212846FFF745FF06223D2128461C
:10488000FFF740FF284600F02DFA70BD70B50646D0
:104890000C461546304600F02DFA0523554A2A21CC
:1048A0003046FFF746FF2B462246A0213046FFF751
:1048B00040FF304600F016FA70BD70B506460C4653
:1048C0001546304600F016FA2B462246A8213046FF
:1048D000FFF72FFF304600F005FA70BD2DE9F047D5
:1048E0000746884615461E46384600F013FA4146EC
:1048F000384600F0DDF98146002406E00021384604
:1049000000F0D6F92855601CC4B2B442F6DB384634
:1049100000F0F8F94846BDE8F0877CB50546052368
:10492000344A30212846FFF704FF05236A46102148
:104930002846FFF7D3FF002408E01DF804002D49A6
:10494000095D884200D003E0601CC4B2052CF4DB92
:1049500000BF052C01D101207CBD0020FCE770B513
:1049600004460D46204600F0D5F92946204600F0C1
:104970009FF90021204600F09BF90646204600F0F2
:10498000C1F9304670BD70B5054607212846FFF7CE
:10499000E6FF044604F04000C0B160212846FFF75E
:1049A000DEFF0646212E0BDA33462A4661212846D1
:1049B000FFF794FF324629460F48FBF7ACFC04E0B2
:1049C000FF22E2212846FFF79DFE00BF04F0100001
:1049D00038B104F0010020B1FF22E1212846FFF7A1
:1049E00091FE224627212846FFF78CFE70BD00006D
:1049F0007E00002079000020C400002030B589B07E
:104A0000054601210C2001F085FC0F20ADF80400C3
:104A100003208DF8060018208DF8070001A96D48C5
:104A200001F0BCF90320ADF8040001A96A4801F0C7
:104A3000B5F900BF0121084601F079FC4FF47A7006
:104A4000684366490968B1FBF0F0401E84B240F249
:104A5000E730ADF81C00ADF818400020ADF81E009E
:104A6000ADF81A0006A94FF0804001F011FF602058
:104A7000ADF808000120ADF80A000020ADF80E00E6
:104A8000ADF8100002A94FF0804001F03EFF082170
:104A9000C80602F089FB02A94FF0804001F077FFC1
:104AA0000821C80602F089FB02A94FF0804001F0FE
:104AB000BBFF0821C80602F08DFB02A94FF0804021
:104AC00001F0FDFF0821C80602F08DFB01218807D7
:104AD00002F03AFB0121880702F036FA0121022098
:104AE00001F025FC3D4800683D49B0FBF1F0401E57
:104AF00084B240F2E730ADF81C00ADF81840002059
:104B0000ADF81E00ADF81A0006A9364801F0C0FE47
:104B10006020ADF808000120ADF80A000020ADF8D3
:104B20000E00ADF8100002A92E4801F07DFF08210B
:104B30002C4802F04FFB02A92A4801F0C0FF0821CF
:104B4000284802F050FB0121264802F0FDFA01211D
:104B5000244802F0F9F909B030BD0246002014E003
:104B600031F91030B3F57A7F04DA4FF47A7321F813
:104B7000103008E031F91030B3F5FA6F03DD4FF46F
:104B8000FA6321F81030431CD8B20628E8DB088805
:104B9000A0F57A704FF0804398864888A0F57A7027
:104BA000104B3C3318808888A0F57A704FF0804312
:104BB0009887C888A0F57A700A4B40331880088916
:104BC000A0F57A701B0618874889A0F57A70064B05
:104BD0001880704700080140000C0140A000002030
:104BE00000366E01000400404000004000B587B070
:104BF0000121082001F08EFB0121042001F08AFB35
:104C00000121880301F093FB4FF46040ADF80400EC
:104C100001208DF8060018208DF8070001A94148F1
:104C200001F0BCF84FF48070ADF8040001208DF85D
:104C3000060010208DF8070001A93B4801F0AEF8EE
:104C40004FF48050ADF8040001208DF806001020CC
:104C50008DF8070001A9334801F0A0F84FF4805106
:104C6000304801F048F90020ADF808004FF4827098
:104C7000ADF80A000020ADF80C00ADF80E00ADF85C
:104C800010004FF40070ADF812000820ADF81400C9
:104C90000020ADF816000720ADF8180002A923483F
:104CA00001F0C2FB0121214801F063FC07B000BD07
:104CB00070B505460C4600BF02211C4801F0DDFC22
:104CC0000028F9D02146194801F084FC00BF0121D9
:104CD000164801F0D2FC0028F9D0144801F07CFC01
:104CE000C0B270BD10B504464FF480710E4801F09B
:104CF00002F910BD10B504464FF480710A4801F066
:104D0000FCF810BD10B504464FF48051054801F081
:104D1000F2F810BD10B504464FF48051014801F07F
:104D2000ECF810BD000C01400008014000380040C4
:104D300010B588B004460121880401F0F8FA012179
:104D4000082001F0E7FA4FF48060ADF8040003207A
:104D50008DF8060018208DF8070001A97D4801F0A4
:104D60001DF84FF40060ADF8040003208DF8060034
:104D700004208DF8070001A9764801F00FF804948B
:104D80000020ADF81400ADF81600ADF81800ADF82D
:104D90001C000C20ADF81A000020ADF80800ADF89A
:104DA0000A004FF40070ADF80C000020ADF80E00C2
:104DB00004A9694802F0E9FB02A9674802F05AFC1D
:104DC000012240F22551644802F077FC012162483B
:104DD00002F067FC27208DF8000001208DF801000B
:104DE00000208DF8020001208DF80300684600F0D5
:104DF000DCF808B010BD10B55749098801F008016A
:104E000021B1554A121D1288D1B200BF52490988FA
:104E100001F08001F1B150490C31098801F08001A5
:104E2000C1B14E490A780978491C4C4B19704C495C
:104E3000895C494A121D118019460978494A12783D
:104E4000914207D144490C31098821F08001424A3E
:104E50000C3211804049098801F0200109B33E4B12
:104E60001B1D1B88DAB203782BB93F4B1A700378ED
:104E70005B1C037014E00378012B11D13B4B1A70BB
:104E80001B78394C247843EA0421002905DD40F2DF
:104E9000DC53994201DA364BD96003785B1C03700E
:104EA00000BF10BD70B505460C462E48017800784D
:104EB000401C2C4A10702A48445427480C30008863
:104EC00000F0800028B9012240F22771224802F048
:104ED000F4FB70BD70B505460C4614E020780D2833
:104EE00004D10D212846FFF7DDFF0BE020780A28CA
:104EF00004D10A212846FFF7D5FF03E02178284690
:104F0000FFF7D0FF641C20780028E7D170BD2DE9A1
:104F1000F04106460C46154600200AE0225C114985
:104F20000B780978491C0F4F39700D49CA54411C40
:104F3000C8B2A842F2DB08480C30008800F08000BC
:104F400028B9012240F22771034802F0B6FBBDE800
:104F5000F0810000000C0140004800408500002066
:104F60005A080020860000208800002087000020CA
:104F7000BC040020704700BFFEE700BFFEE700BF93
:104F8000FEE77047704710B5FEF7C7F910BD7047D0
:104F900010B50248FFF72FFF10BD0000840000206D
:104FA00031490143314A1160704770B50021002337
:104FB0000F22C47804B32D4C246804F4E064C4F5D3
:104FC000E064210AC1F10403CA40447804FA03F101
:104FD0008478144021430901254C0678A1550478B2
:104FE00004F01F050124AC4005786D11AD0005F1FA
:104FF000E025C5F8004109E0047804F01F0501240C
:10500000AC401C4D0678761145F8264070BD1A4A12
:105010000A400243154B1B1F1A60704739B1134AEF
:10502000121D12680243114B1B1D1A6006E00F4A45
:10503000121D126882430D4B1B1D1A607047042815
:1050400008D14FF0E021096941F004014FF0E0225E
:10505000116107E04FF0E021096921F004014FF0F0
:10506000E0221161704700000000FA050CED00E03D
:1050700000E400E080E100E080FFFF1F10B504467F
:10508000FA48844208D10121401501F05DF9002160
:10509000601501F059F917E0F548844208D1012163
:1050A000001501F051F90021201501F04DF90BE038
:1050B000F048844208D10121C80301F045F90021DC
:1050C0004FF4004001F040F910BD30B50246002019
:1050D00000235068E84C20400D790C6844EA052410
:1050E000204350609068E54C2040D1E902542C43A5
:1050F0004D7944EA450420439060D06A20F4700062
:105100000C7C641EE4B2234340EA0350D06230BDFD
:1051100000210160017141718160C1600121017450
:10512000704721B1826842F00102826003E0826828
:1051300022F001028260704721B1826842F48072DD
:10514000826003E0826822F480728260704710B54A
:105150000023CBB21AB144681C43446002E04468A7
:105160009C43446010BD816841F008018160704734
:10517000014600208A6802F008020AB1012000E01E
:1051800000207047816841F004018160704701464A
:1051900000208A6802F004020AB1012000E0002029
:1051A000704721B1826842F4A002826003E0826805
:1051B00022F4A00282607047014600208A6802F44F
:1051C00080020AB1012000E00020704710B50A46B5
:1051D00000210023416821F46041531E41EA43311C
:1051E000416010BD21B1426842F40062426003E0B8
:1051F000426822F4006242607047F0B504460D46F2
:1052000000200021092D11DDE068A5F10A0606EB5A
:105210004607072606FA07F18843A5F10A0606EBBA
:10522000460603FA06F10843E0600CE0206905EB4E
:105230004507072606FA07F1884305EB450603FAFA
:1052400006F108432061072A0FDA606B561E06EB51
:1052500086071F2606FA07F18843561E06EB8606C8
:1052600005FA06F10843606322E00D2A0FDA206B8D
:10527000D61F06EB86071F2606FA07F18843D61FBE
:1052800006EB860605FA06F10843206310E0E06AA3
:10529000A2F10D0606EB86071F2606FA07F18843E2
:1052A000A2F10D0606EB860605FA06F10843E06258
:1052B000F0BD21B1826842F48012826003E082680E
:1052C00022F48012826070470146C86C80B2704739
:1052D00066484C300068704721B1426842F48062F1
:1052E000426003E0426822F480624260704721B16C
:1052F000426842F48052426003E0426822F48052E5
:10530000426070470A460021816821F4E041114360
:105310008160704721B1826842F40042826003E0FC
:10532000826822F400428260704721B1826842F4B0
:105330000212826003E0826822F4021282607047E7
:10534000014600208A6802F400120AB1012000E040
:1053500000207047F0B504461546002000220026C4
:10536000092911DDE068A1F10A0707EB470C0727BF
:1053700007FA0CF29043A1F10A0707EB470703FA7B
:1053800007F21043E0600CE0206901EB410C0727B5
:1053900007FA0CF2904301EB410703FA07F21043BE
:1053A0002061A06BC0F30156EF1C06F1010CA7EBC6
:1053B0000C0707EB870C1F2707FA0CF29043EF1C32
:1053C00006F1010CA7EB0C0707EB870701FA07F2C0
:1053D0001043A063F0BD10B50A4600210023816B85
:1053E00021F44011531E41EA0351816310BD08B5F9
:1053F000002300930090009B0B440093009B1A60D5
:1054000008BD08B5024600200090009201F1280076
:10541000009B184400900098006880B208BD0A46BE
:1054200000214168164B19401143416070474162A9
:10543000826270470A460021416821F01F01114332
:105440004160704740B109490831096841F40001E1
:10545000064A0832116007E004490831096821F45E
:105460000001024A08321160704700000024014028
:1054700000280140003C0140FFFEF0FFFDF7F1FF76
:10548000FFFD3FFF0246002013680B400BB10120D7
:1054900000E000207047CA430260704770B50246C2
:1054A0000020002300240B125568CEB205EA060442
:1054B00015681D4015B10CB1012000E0002070BD41
:1054C00000220A12D34303607047000001684FF6C0
:1054D000FE72114001600021016041608160C16085
:1054E0008D49884208D18C490839496841F00F013B
:1054F000894A083A51608AE087491431884208D1C4
:1055000085490839496841F0F001834A083A5160F9
:105510007DE081492831884208D17F4908394968AE
:1055200041F470617C4A083A516070E07A493C313C
:10553000884208D178490839496841F47041764A6F
:10554000083A516063E074495031884208D1724989
:105550000839496841F470216F4A083A516056E0B1
:105560006D496431884208D16B490839496841F472
:105570007001694A083A516049E0674978318842C8
:1055800008D165490839496841F07061624A083AB2
:1055900051603CE06149884206D1011F096841F031
:1055A0000F01021F116032E05C491431884208D1BA
:1055B0005A49091F096841F0F001584A121F116049
:1055C00025E056492831884208D15449091F096805
:1055D00041F47061514A121F116018E04F493C318B
:1055E000884208D14D49091F096841F470414B4A6E
:1055F000121F11600BE049495031884207D14749D9
:10560000091F096841F47021444A121F1160704754
:1056100010B50022026847F6F0739A430C6A8B6853
:1056200023430C6923434C6923438C692343CC698E
:1056300023434C6A23438C6A23431A430260CB689A
:1056400043600B6883604B68C36010BD002101603C
:1056500041608160C160016141618161C16101623C
:1056600041628162704721B1026842F0010202602A
:1056700004E002684FF6FE731A40026070471AB1E8
:1056800003680B43036002E003688B4303607047C9
:10569000416070470146486880B27047014600206B
:1056A000002201F080531BB11C4B083B1A6802E03A
:1056B000194B083B1A6802EA01030BB1012000E014
:1056C0000020704700F0805119B11449091F08608B
:1056D00002E0114908394860704701460020002265
:1056E00001F080531BB10D4B083B1A6802E00A4BD6
:1056F000083B1A6802EA01030BB1012000E0002018
:10570000704700F0805119B10449091F086002E098
:105710000149083948607047080002400804024007
:1057200001460020FE4A106800F03800084310606F
:105730007047FB49096821F00801F94A11601146D8
:105740000968014311607047F549096821F01001AB
:10575000F34A116011460968014311607047F1482E
:10576000EF494860F04848607047EE48EC494860AF
:10577000ED4848607047EA48006940F08000E84919
:1057800008617047E648006940F08000E44908611C
:1057900070470420E249C96801F0010109B1012004
:1057A0000EE0DF49C96801F0040109B1022007E0F9
:1057B000DB49C96801F0100109B1032000E00420B1
:1057C000704700B502460423FFF7E3FF034603E0FA
:1057D000FFF7DFFF0346521E012B01D1002AF7D14C
:1057E00002B90523184600BD30B5044604254FF420
:1057F0003020FFF7E6FF0546042D17D1C8480069A1
:1058000040F00200C649086108464461006940F062
:10581000400008614FF43020FFF7D3FF0546C04831
:10582000006941F6FD710840BD490861284630BD58
:1058300010B504244FF43020FFF7C3FF0446042CB6
:1058400016D1B748006940F00400B5490861084620
:10585000006940F0400008614FF43020FFF7B1FFCD
:105860000446AF48006941F6FB710840AC49086145
:10587000204610BD00B502460423FFF78AFF034609
:1058800003E0FFF786FF0346521E012B01D1002AD9
:10589000F7D102B90523184600BD10B504244FF412
:1058A0003020FFF7E7FF0446042C16D19C4800691E
:1058B00040F004009A4908610846006940F0400041
:1058C00008614FF43020FFF7D5FF04469448006983
:1058D00041F6FB71084092490861204610BD002046
:1058E0008F49C96901F0020109B1012000E00020DF
:1058F000704730B5A5250424FFF7F1FF00B100255E
:105900004FF43020FFF75DFF0446042C3AD1854860
:1059100083498860844888600846006940F0200018
:1059200008610846006940F0400008614FF43020EB
:10593000FFF747FF0446042C1BD17948006941F664
:10594000DF710840764908610846006940F01000A0
:10595000086176480580E002FFF733FF0446052C16
:1059600010D06F48006941F6EF7108406C4908613A
:1059700008E0052C06D06A48006941F6EF7108403E
:1059800067490861204630BD78B506460C460425B7
:1059900000200090E802FFF714FF0546042D24D1F3
:1059A0005F48006940F001005D4908613480E80209
:1059B000FFF707FF0546042D10D1B01C0090200C06
:1059C00000990880E802FFF7FCFE0546544800698C
:1059D00041F6FE7108405249086106E050480069EE
:1059E00041F6FE7108404E490861284678BD70B501
:1059F00004460D460426F002FFF7E3FE0646042E99
:105A000011D14748006940F00100454908612580EF
:105A1000F002FFF7D6FE06464148006941F6FE71E6
:105A200008403F490861304670BD70B505460E46D6
:105A30000424E002FFF7C5FE0446042C17D13948C0
:105A400037498860384888600846006940F010008F
:105A500008612E80E002FFF7B4FE0446052C06D054
:105A60002F48006941F6EF7108402D490861204632
:105A700070BD2DE9F04304464FF6FF763746B04639
:105A8000B1460425E443E6B2C4F30727C4F307484C
:105A90004FEA1469E802FFF794FE0546042D49D148
:105AA00020481F498860204888600846006940F007
:105AB00010000861FF2E06D01C4808300680E8025E
:105AC000FFF77FFE0546042D08D1FF2F06D01748AB
:105AD0000A300780E802FFF774FE0546042D0AD15C
