:020000040800F2
:1000000038100020918C0008256100089B8C0008A6
:10001000276100082B6100082F6100080000000024
:100020000000000000000000000000003361000834
:100030003561000800000000A78C00083761000847
:10004000AB8C0008AB8C0008AB8C0008AB8C0008B4
:10005000AB8C0008AB8C0008AB8C0008AB8C0008A4
:10006000AB8C0008AB8C0008AB8C0008AB8C000894
:10007000AB8C0008AB8C0008AB8C0008AB8C000884
:10008000AB8C0008AB8C0008AB8C0008AB8C000874
:10009000AB8C0008AB8C0008AB8C0008AB8C000864
:1000A000AB8C0008AB8C0008AB8C0008AB8C000854
:1000B000AB8C0008AB8C0008AB8C0008AB8C000844
:1000C000AB8C0008AB8C0008AB8C0008AB8C000834
:1000D000AB8C00083F610008AB8C00084161000850
:1000E000AB8C0008AB8C0008AB8C000800F002F869
:1000F00000F03CF80AA090E8000C82448344AAF186
:100100000107DA4501D100F031F8AFF2090EBAE883
:100110000F0013F0010F18BFFB1A43F0010318473B
:1001200060B2000080B20000103A24BF78C878C1E5
:10013000FAD8520724BF30C830C144BF04680C60ED
:10014000704700000023002400250026103A28BF35
:1001500078C1FBD8520728BF30C148BF0B60704739
:100160001FB508F0B9FD1FBD10B510BD08F0DAFDD0
:100170001146FFF7F5FF00F009F808F0F8FD03B4A9
:10018000FFF7F2FF03BC08F0F9FD000004F0B7F937
:10019000064803F093F9064801F061FF054802F0B4
:1001A00017FB01E003F0D4FCFCE700005400002042
:1001B00048020020040500200122C272704710B5D9
:1001C0000446607B00B338480078401C364908700C
:1001D00008460078012804D0052809D00A2812D141
:1001E0000DE0324804F03CFF304804F041FF0AE0E3
:1001F0002E4804F045FF2D4804F04AFF03E000209C
:100200002949087000BF49E0607AE0B1207BD0B98D
:1002100025480078401C24490870084600780128C9
:1002200004D0142806D028280CD107E01F4804F079
:1002300017FF07E01D4804F023FF03E000201A49E0
:10024000087000BF2AE0607A10B3207B00B3184822
:100250000078401C1649087008460078012804D030
:10026000142809D0282812D10DE0104804F0F8FE17
:100270000E4804F00DFF0AE00C4804F001FF0B48A3
:1002800004F0F6FE03E000200949087000BF05E015
:10029000064804F0E5FE054804F0EAFE10BD00B58E
:1002A0000448FFF789FF00BD000000207400002013
:1002B00001000020CC00002070B504460E46154613
:1002C0002A4604F10F01FE4805F0B8FB70BD2DE988
:1002D000F04104460D461646AA20E073AA21217477
:1002E000EF2161740221A174E574267500270020B6
:1002F00006E004F10F01095C3944CFB2411CC8B2D9
:100300000628F6DB6775082204F10F012046FFF787
:10031000D3FFBDE8F0812DE9F04F87B005460C46CC
:100320001646002701200690002004E0215C394495
:10033000CFB2411CC8B2711E8142F7DCA01910F87F
:10034000010CB84202D007B0BDE8F08F2078AA288F
:1003500002D16078AF2800D0F5E70021D94881723A
:10036000A078012811D12079012801D1D64908703F
:100370002079022802D10120D3494870207903282E
:1003800003D10120D04908704870A078022816D106
:100390002079012805D128716871A871E871287247
:1003A00068722079A02801D1012028702079A12825
:1003B00005D1C64801F0BAFAC54802F066FFA07838
:1003C00003287CD12079617941EA0020C149C880A5
:1003D000A079E17941EA0020BE498880207A617ADB
:1003E00041EA0020BB490880A07AE17A41EA002076
:1003F000B8494880207B617B41EA0020B5490881EB
:10040000A07BE17B41EA0020B2494881207C617CED
:1004100041EA0020AF498881A07CE17C41EA0020CC
:10042000AC49C8810698002861D008460088A0F22F
:10043000DC5908464088A0F2DC58A749886803F0D8
:1004400042FC029008F08CFF824648460AF0C6FB48
:10045000834651460AF022FC9F490490886803F0C5
:1004600032FC019009F04AFB834640460AF0B6FB95
:10047000594602900AF012FC824698490AF03CFD67
:10048000039004990AF0DAF905900AF087FB914984
:1004900008809149886803F016FC029009F02EFB51
:1004A000049048460AF09AFB039004990AF0F6FB80
:1004B00089490590886803F006FC019000E016E089
:1004C00008F04EFF039040460AF088FB0290039923
:1004D0000AF0E4FB814904900AF0B0F983460599DB
:1004E0000AF0ACF982460AF059FB7A494880A078B4
:1004F00010287DD12179090209B2627941EA02000E
:100500000AF06CFB824676490AF00CFA6F490860E3
:10051000A179090209B2E27941EA02000AF05EFB20
:1005200082466F490AF0FEF968494860217A09025B
:1005300009B2627A41EA02000AF050FB8246684939
:100540000AF0F0F961498860A17A090209B2E27AF9
:1005500041EA02000AF042FB824661490AF0E2F9F0
:100560005A49C861217B090209B2627B41EA020053
:100570000AF034FB82465A490AF0D4F9534908621A
:10058000A17B090209B2E27B41EA02000AF026FBE4
:10059000824653490AF0C6F94C494862217C090257
:1005A00009B2627C41EA02000AF018FB82464C491B
:1005B0000AF0B8F945498863A17C090209B2E27CD6
:1005C00041EA02000AF00AFB824645490AF0AAF90C
:1005D0003E49C863217D090209B2627D41EA0200F9
:1005E0000AF0FCFA82463E490AF09CF9374900E0DD
:1005F00005E00864A1783A462846FFF768FEA0782F
:1006000011286FD12179090209B2627941EA020009
:100610000AF0E4FA824632490AF084F92B49486527
:10062000A179090209B2E27941EA02000AF0D6FA98
:1006300082462B490AF076F924498865217A090215
:1006400009B2627A41EA02000AF0C8FA82462449F5
:100650000AF068F91D49C865A17A090209B2E27A6F
:1006600041EA02000AF0BAFA82461D490AF05AF934
:1006700016490867217B090209B2627B41EA020040
:100680000AF0ACFA824616490AF04CF90F4948675D
:10069000A17B090209B2E27B41EA02000AF09EFA5C
:1006A00082460F490AF03EF908498867217C090211
:1006B00009B2627C41EA02000AF090FA824612E036
:1006C000A4060020CC0000203C06002020010020D1
:1006D00054000020D8050020480200200080BB44C0
:1006E00000007A4428E0FE490AF01CF9FD49C1F8EF
:1006F0008C00A17C090209B2E27C41EA02000AF006
:100700006DFA8246F6490AF00DF9F649C1F89000F3
:10071000217D090209B2627D41EA02000AF05EFA17
:100720008246EF490AF0FEF8EE49C1F89400A1783C
:100730003A462846FFF7CBFDA078122834D121791C
:10074000090209B2627941EA02000AF047FA8246D8
:10075000E3490AF0E7F8E349C1F8A800A1790902E2
:1007600009B2E27941EA02000AF038FA8246DC492D
:100770000AF0D8F8DB49C1F8AC00217A090209B2C5
:10078000627A41EA02000AF029FA8246D4490AF064
:10079000C9F8D449C1F8B000A1783A462846FFF715
:1007A00096FDD14802F071FDA078132804D1A178FC
:1007B0003A462846FFF78BFDA078142804D1A1788B
:1007C0003A462846FFF783FDA078152804D1A17882
:1007D0003A462846FFF77BFD00BFB4E510B5044656
:1007E000C24805F0A8F910BD2DE9FC5F04460E468D
:1007F00017469846DDE90CAB0025AA2229466D1C58
:1008000004F10F00425429466D1C425406F10F00BA
:10081000C2B229466D1C04F10F0042540022294641
:100820006D1C4254AE4938460AF038FA00900AF07E
:100830006FF900B201909DF8052029466D1C04F166
:100840000F0042549DF8042029466D1C4254A449CF
:1008500040460AF023FA00900AF05AF900B20190DB
:100860009DF8052029466D1C04F10F0042549DF8A7
:1008700004202846691CCDB204F10F010A5498499E
:1008800050460AF00BFA00900AF042F900B20190CB
:100890009DF805202846691CCDB204F10F010A54C9
:1008A0009DF804202846691CCDB204F10F010A54BA
:1008B0008B4958460AF0F2F900900AF029F900B283
:1008C00001909DF805202846691CCDB204F10F0166
:1008D0000A549DF804202846691CCDB204F10F018A
:1008E0000A547F490E980AF0D9F900900AF010F9DD
:1008F00000B201909DF805202846691CCDB204F194
:100900000F010A549DF804202846691CCDB204F159
:100910000F010A5472490F980AF0C0F900900AF0CA
:10092000F7F800B201909DF805202846691CCDB269
:1009300004F10F010A549DF804202846691CCDB229
:1009400004F10F010A54664910980AF0A7F90090C3
:100950000AF0DEF800B201909DF805202846691CD7
:10096000CDB204F10F010A549DF804202846691CF9
:10097000CDB204F10F010A54594911980AF08EF9C9
:1009800000900AF0C5F800B201909DF805202846B5
:10099000691CCDB204F10F010A549DF804202846C9
:1009A000691CCDB204F10F010A544D4912980AF0A6
:1009B00075F900900AF0ACF800B201909DF805209E
:1009C0002846691CCDB204F10F010A549DF8042099
:1009D0002846691CCDB204F10F010A54281FA074E7
:1009E0004FF00009002007E004F10F01095C4944C1
:1009F00001F0FF09411CC8B2A842F5DB2846691C7A
:100A0000CDB204F10F0101F800902A462046FFF70D
:100A100053FCBDE8FC9F2DE9F84304460E461746FB
:100A20000025AA2229466D1C04F10F0042542946D4
:100A30006D1C4254052229466D1C42540022294651
:100A40006D1C425400969DF8012029466D1C4254AD
:100A50009DF8002029466D1C425400979DF8012006
:100A600029466D1C42549DF800202846691CCDB2D1
:100A700004F10F010A54281FA0744FF00008002051
:100A800007E004F10F01095C414401F0FF08411C3B
:100A9000C8B2A842F5DB2846691CCDB204F10F01AB
:100AA00001F800802A462046FFF706FCBDE8F883DF
:100AB0007FB504460025AA2229466D1C04F10F00CB
:100AC000425429466D1C4254062229466D1C42544C
:100AD000002229466D1C42549DF80520294607E056
:100AE00000007A442001002054000020A4060020C9
:100AF0006D1C42549DF8042029466D1C42549DF8FB
:100B0000092029466D1C42549DF808202846691C7E
:100B1000CDB204F10F010A549DF80D202846691C3E
:100B2000CDB204F10F010A549DF80C202846691C2F
:100B3000CDB204F10F010A549DF821202846691C0A
:100B4000CDB204F10F010A549DF820202846691CFB
:100B5000CDB204F10F010A549DF825202846691CE6
:100B6000CDB204F10F010A549DF824202846691CD7
:100B7000CDB204F10F010A549DF829202846691CC2
:100B8000CDB204F10F010A549DF828202846691CB3
:100B9000CDB204F10F010A549DF82D202846691C9E
:100BA000CDB204F10F010A549DF82C202846691C8F
:100BB000CDB204F10F010A549DF831202846691C7A
:100BC000CDB204F10F010A549DF830202846691C6B
:100BD000CDB204F10F010A54281FA0740026002092
:100BE00006E004F10F01095C3144CEB2411CC8B2E9
:100BF000A842F6DB2846691CCDB204F10F010E5461
:100C00002A462046FFF758FB7FBD7FB504460025E6
:100C1000AA2229466D1C04F10F00425429466D1C7E
:100C20004254032229466D1C4254002229466D1C61
:100C300042549DF8052029466D1C42549DF804201D
:100C400029466D1C42549DF8092029466D1C4254CA
:100C50009DF808202846691CCDB204F10F010A5402
:100C60009DF80D202846691CCDB204F10F010A54ED
:100C70009DF80C202846691CCDB204F10F010A54DE
:100C80009DF821202846691CCDB204F10F010A54B9
:100C90009DF820202846691CCDB204F10F010A54AA
:100CA0009DF825202846691CCDB204F10F010A5495
:100CB0009DF824202846691CCDB204F10F010A5486
:100CC0009DF829202846691CCDB204F10F010A5471
:100CD0009DF828202846691CCDB204F10F010A5462
:100CE0009DF82D202846691CCDB204F10F010A544D
:100CF0009DF82C202846691CCDB204F10F010A543E
:100D00009DF831202846691CCDB204F10F010A5428
:100D10009DF830202846691CCDB204F10F010A5419
:100D20009DF835202846691CCDB204F10F010A5404
:100D30009DF834202846691CCDB204F10F010A54F5
:100D40009DF839202846691CCDB204F10F010A54E0
:100D50009DF838202846691CCDB204F10F010A54D1
:100D6000281FA0740026002006E004F10F01095C92
:100D70003144CEB2411CC8B2A842F6DB2846691CF9
:100D8000CDB204F10F010E542A462046FFF794FA23
:100D90007FBD2DE9F84304460E4617460025AA22DA
:100DA00029466D1C04F10F00425429466D1C425423
:100DB000072229466D1C4254002229466D1C4254CC
:100DC00000969DF8032029466D1C42549DF8022090
:100DD00029466D1C42549DF8012029466D1C425441
:100DE0009DF800202846691CCDB204F10F010A5479
:100DF00000979DF801202846691CCDB204F10F012F
:100E00000A549DF800202846691CCDB204F10F0158
:100E10000A54281FA0744FF00008002007E004F1D6
:100E20000F01095C414401F0FF08411CC8B2A8420F
:100E3000F5DB2846691CCDB204F10F0101F80080F2
:100E40002A462046FFF738FABDE8F8832DE9F84F27
:100E500004460E4617469846DDE90AAB0025AA224D
:100E600029466D1C04F10F00425429466D1C425462
:100E7000022229466D1C4254002229466D1C425410
:100E800000969DF8012029466D1C42549DF80020D3
:100E900029466D1C425400979DF8012029466D1C7F
:100EA00042549DF800202846691CCDB204F10F0180
:100EB0000A54CDF800809DF801202846691CCDB267
:100EC00004F10F010A549DF800202846691CCDB298
:100ED00004F10F010A54CDF800A09DF80120284626
:100EE000691CCDB204F10F010A549DF80020284678
:100EF000691CCDB204F10F010A54CDF800B09DF881
:100F000001202846691CCDB204F10F010A549DF856
:100F100000202846691CCDB204F10F010A540C9838
:100F200000909DF801202846691CCDB204F10F0104
:100F30000A549DF800202846691CCDB204F10F0127
:100F40000A540D9800909DF801202846691CCDB2E6
:100F500004F10F010A549DF800202846691CCDB207
:100F600004F10F010A540E9800909DF801202846C4
:100F7000691CCDB204F10F010A549DF800202846E7
:100F8000691CCDB204F10F010A540F9800909DF82E
:100F900001202846691CCDB204F10F010A549DF8C6
:100FA00000202846691CCDB204F10F010A54281F05
:100FB000A0744FF00009002007E004F10F01095C64
:100FC000494401F0FF09411CC8B2A842F5DB28469C
:100FD000691CCDB204F10F0101F800902A462046A9
:100FE000FFF76AF9BDE8F88F2DE9FE4F04460E467B
:100FF00017469846DDE90CAB0025CDF804A0AA22DF
:1010000029466D1C04F10F00425429466D1C4254C0
:10101000012229466D1C4254002229466D1C42546F
:10102000FE49304609F03AFE009009F071FD00B229
:1010300002909DF8092029466D1C04F10F004254CE
:101040009DF8082029466D1C4254F449384609F0A1
:1010500025FE009009F05CFD00B202909DF8092089
:1010600029466D1C04F10F0042549DF808202846C3
:10107000691CCDB204F10F010A54E849404609F059
:101080000DFE009009F044FD00B202909DF8092089
:101090002846691CCDB204F10F010A549DF80820BE
:1010A0002846691CCDB204F10F010A549DF80720AF
:1010B0002846691CCDB204F10F010A549DF80620A0
:1010C0002846691CCDB204F10F010A549DF8052091
:1010D0002846691CCDB204F10F010A549DF8042082
:1010E0002846691CCDB204F10F010A542846691C38
:1010F000CDB204F10F0101F800B029466A1CD5B247
:1011000004F10F020E985054281FA0744FF00009EC
:10111000002007E004F10F01095C494401F0FF09D8
:10112000411CC8B2A842F5DB2846691CCDB204F1C7
:101130000F0101F800902A462046FFF7BDF8BDE8F0
:10114000FE8F2DE9FF4104460E460025AA222946BE
:101150006D1C04F10F00425429466D1C42540022BC
:1011600029466D1C425429466D1C425429466D1C6B
:1011700046549DF8092029466D1C42549DF80820CC
:1011800029466D1C42549DF80D202846691CCDB29D
:1011900004F10F010A549DF80C202846691CCDB2B9
:1011A00004F10F010A549DF829202846691CCDB28C
:1011B00004F10F010A549DF828202846691CCDB27D
:1011C00004F10F010A549DF82D202846691CCDB268
:1011D00004F10F010A549DF82C202846691CCDB259
:1011E00004F10F010A54281FA0740027002006E014
:1011F00004F10F01095C3944CFB2411CC8B2A842C6
:10120000F6DB2846691CCDB204F10F010F542A46C3
:101210002046FFF751F8BDE8FF812DE9F04788B07F
:1012200004467F4800787F49097890FBF1F201FB82
:1012300012017C480078401E814201D10120A0703B
:10124000774800787849097890FBF1F201FB1201A8
:1012500075480078401E814201D10120E07070483D
:1012600000787249097890FBF1F201FB12016F4896
:101270000078401E814201D10120607368480078E7
:101280006B49097890FBF1F201FB12016848007884
:10129000401E814201D1012060706148007865499B
:1012A000097890FBF1F201FB120162480078401EC0
:1012B000814201D10120A072594800785E49097825
:1012C00090FBF1F201FB12015B480078401E814265
:1012D00001D101202073524800785849097890FBC9
:1012E000F1F201FB120155480078401E814201D104
:1012F0000120A0734A480078401C494908702078B2
:1013000068B1002020704FF4C8716E234FF49672BC
:10131000CDE9001001212046FFF713FF44E160787A
:10132000A8B1002060704649086B09F0F1FB054642
:101330004448407A4349097BCDE900510290424834
:101340008368426801682046FFF74EFE2CE1607B0F
:1013500010B10020607327E1A07880B30020A07056
:101360003949486909F0D4FB05B23749086909F0E1
:10137000CFFB06B23449C86809F0CAFB07B232494C
:10138000C86A09F0C5FB0FFA80F82F49886A09F08E
:10139000BFFB0FFA80F92C49486A09F0B9FB0FFA34
:1013A00080FA0020CDE90250049043464A46514657
:1013B000CDE9007605902046FFF748FDF4E0FFE711
:1013C000E078A0B10020E0701D48806800EBC00309
:1013D00003EB00104FF6FF7303EA800218484068E1
:1013E000642300FB03F12046FFF7D3FCDCE0A07A86
:1013F00098B10020A0721548408A1449098A134AFE
:10140000D289124B9B89CDE90332CDE905100F48F3
:10141000418900890D4A52881AE024E00000C84240
:10142000020000200300002009000020040000202A
:101430000500002006000020070000200800002012
:1014400004050020CC00002048020020D805002020
:10145000CDE900200291614803888288C188204636
:10146000FFF7D3FBA0E0207B80B30020207305A909
:101470005B4801F020F900200AE005A931F81010BE
:10148000A1F57A7109B205AA22F81010411CC8B260
:101490000628F2DB0022BDF81E0080B2BDF81C1049
:1014A00089B2CDE9020204920191BDF81A0080B21E
:1014B0000090BDF8180083B2BDF8160082B2BDF8E6
:1014C000140081B22046FFF7F3FA6DE0FFE7A07B3E
:1014D00080B10020A07343494348006809F0DEFB57
:1014E000064609F05BFB85B2002229462046FFF73D
:1014F00092FA59E02079E8B1002020713B48016C54
:10150000C06B3A4A926B394B5B6ACDE90332CDE945
:1015100005013648006A3549C969344A9268CDE9FF
:101520000021029031484368012102682046FFF7FC
:101530005BF939E06079F0B1002060712B48D0F898
:101540009420D0F89010D0F88C00284B9B6FCDE9F8
:101550000330CDE905122548416F006F234AD26D53
:10156000CDE9002002912148836D0221426D204681
:10157000FFF73AF918E0A079B0B10020A07103900C
:10158000049005900146024606901848D0F8B00035
:10159000CDE9012100901548D0F8AC300321D0F8F6
:1015A000A8202046FFF720F908B0BDE8F0871049D1
:1015B00009781E290CDD00210D4A11700D49897A28
:1015C00019B901220B498A7202E0002209494A72C4
:1015D00007490978491C064A11707047D805002050
:1015E000F80400200000C84268000020200100200C
:1015F0000A000020CC0000202DE9F04781460C466F
:1016000015462946C34809F049FB804641464FF03C
:101610007E5009F087F90746214609F00FF9064682
:101620003146204609F07EF9BDE8F0872DE9F84FF4
:101630000F4615461C462946B64809F02FFB814641
:10164000394609F02BFB804641464FF07E5009F0A9
:1016500069F906463146B04809F020FB824631461A
:10166000304609F01BFB8346514609F0E7F88146F6
:101670004FF07E5109F0E2F8804641464FF07E502F
:1016800009F050F920603146A34809F007FB834672
:101690003146304609F002FB5946009009F0CEF879
:1016A00082464FF07E5109F0C9F8804631469A488B
:1016B00009F0F4FA314600904FF0804009F0EEFA5C
:1016C0008346314609F0EAFA8246009909F0B6F8F5
:1016D0008146414609F026F9606031468E4809F09E
:1016E000DDFA83463146304609F0D8FA5946009073
:1016F00009F0A4F881464FF07E5109F09FF880462A
:101700003146304609F0CAFA8246414609F00AF9E4
:10171000A060BDE8F88F2DE9F04107460D4614465C
:101720002146284609F08AF806463146204609F047
:10173000F9F8BDE8F0810FB4F0B58DB005460F465D
:101740001A9C224617A904A808F075FC04A807C82B
:1017500007AB07C321464FF07E5009F05FFC0646F9
:10176000324614A901A808F066FC01A807C80AAB14
:1017700007C307AA0AA9284608F079FC0DB0F0BCF7
:101780005DF814FB0FB470B59EB005460E461446C6
:101790000FA8002181604160016000BF04F10C01CD
:1017A0000CA8A26808F047FC0CA807C812AB07C336
:1017B00004F1180109A8626808F03DFC09A807C8EF
:1017C00015AB07C325A906A8226808F034FC06A8B3
:1017D00007C818AB07C315AA18A903A808F047FC47
:1017E00003A807C81BAB07C312AA1BA9684608F0C9
:1017F000EAFB9DE807000FAB07C3D4E90712A06915
:10180000C4E90412E0600FA807C8C4E90712A06188
:101810000FA807C885E807001EB070BC5DF814FB70
:101820002DE9F05F83460C4615463C48A1680068E8
:1018300009F034FA80463A486168006809F02EFAE7
:1018400081462846216809F029FA8246494608F06F
:10185000F5FF0746414609F0E1FB064630480068BF
:101860002E4908602E480660304609F051F9BDE85F
:10187000F09F2DE9F05F83460C4615462948A16884
:10188000006809F00BFA804627486168006809F093
:1018900005FA81462846216809F000FA8246494641
:1018A00008F0CCFF0746414609F0B8FB06461E4843
:1018B00000681C4908601C480660304609F028F999
:1018C000BDE8F09F0FB4F0B58DB005460F461A9CE9
:1018D00021464FF07E5009F0A1FB0646324617A97B
:1018E00004A808F0A8FB04A807C807AB07C3224652
:1018F00014A901A808F09FFB01A807C80AAB07C3F9
:1019000007AA0AA9284608F0B2FB0DB0F0BC5DF8A2
:1019100014FB0000DB0FC940000040401000002015
:101920000C000020180000201400002038B50446E8
:10193000F948FA4BFA4A11460090204607F061FA3E
:10194000F548F64BF64A1146009004F11C0007F0EA
:1019500058FAF1480023F34AF349009004F13800A3
:1019600007F04FFA002003460246F049009004F1C8
:10197000540007F046FA0020034602464FF080412B
:10198000009004F1700007F03CFAE948E94B4FF091
:101990007C524FF07F51009004F18C0007F031FA37
:1019A000DD4800231A46E449009004F1A80007F03E
:1019B00028FA38BD10B5044607231C22DF4920460B
:1019C00007F046FA044604F1C40008F07EFAA0F1DC
:1019D000C40404F1D00008F078FAA0F1D00404F1B6
:1019E000EC0008F072FAA0F1EC04962004F8DC0F89
:1019F000322060706420E082A4F1DC042046FFF70E
:101A000095FF204610BD10B50446CD49086B09F07E
:101A10007FF8C4F8D80010BD2DE9F04188B0044625
:101A200003A8002181604160016000BFC5490868CA
:101A3000C54909F033F90746C449B1F91410480003
:101A40004FF4AF72514202F022F9804609F0C6F815
:101A50000646394609F0E2FA054609F059F80690BB
:101A6000B8494868B84909F019F90746B749B1F9C2
:101A7000161048004FF4AF72514202F008F9804648
:101A800009F0ACF80646394609F0C8FA054609F0EF
:101A90003FF807900221069802F004F9069002210F
:101AA000079802F0FFF807904FF08142A5491831DE
:101AB000684608F06CFA9DE8070003AB07C304F121
:101AC0005400069901F0C0FD074609F087F8064664
:101AD000039909F0A3FA054609F01AF8C4F8E000E2
:101AE00004F15400079901F0AFFD074609F076F8BC
:101AF0000646049909F092FA054609F009F8E4212E
:101B0000085194F8DD009149B1F9181000FB01F576
:101B1000E91705EBD161481109F060F8074605990E
:101B200009F07CFA064608F0F3FFE821085108B0F6
:101B3000BDE8F0812DE9FF4705468249486800214C
:101B400009F078F902D27F48406803E07D48406898
:101B500080F0004007467B490868002109F06AF9D7
:101B600002D27848006803E07648006880F00040C0
:101B70008046394609F05EF90DD2724908680021A5
:101B800009F058F902D26F48006811E06D4800680A
:101B900080F000400CE06B494868002109F04AF9E8
:101BA00002D26848406803E06648406880F0004020
:101BB0000446674A002102F030F8064600241BE084
:101BC0006248C08840F2E241884205DAC4EBC401B1
:101BD00005EB810001F072FD05F1E00252F82410DE
:101BE000C4EBC40205EB8200524A01F03DFD01A99D
:101BF00041F82400601CC4B2032CE1DB534BB3F961
:101C00001830002B03DD514BB3F9183003E04F4B74
:101C1000B3F918305B4203F596724C4BB3F91830A8
:101C2000002B03DD494BB3F9183003E0474BB3F900
:101C300018305B42474CE11A039802F028F8404202
:101C400003904548007BD8B9304602F03CF8824604
:101C500007F086FB80463D49B1F91A10A1F57A706C
:101C600008F0BCFF8146414608F05CFE07463B4950
:101C700008F0E4FD044608F04BFF01B2334841830D
:101C8000039800903148408B81B23548DDE901234B
:101C900000F0E8FBBDE8FF872DE9F04704462B483C
:101CA000C088A0F2DC5005B2002D01DD284600E01E
:101CB0006842B4F9F210884223DDB4F9F200A0F1D1
:101CC0005001284601F0EEFF05B2002D09DD05FBAD
:101CD00005F04FF4FA7190FBF1F001B2C820015306
:101CE00008E0684268434FF42F7190FBF1F001B2B5
:101CF000C82001532046FFF786FE012019490870CD
:101D000058E01848007830B12046FFF77CFE0020EC
:101D1000144908704EE027E0000048430AD7A33C6E
:101D20009A99193E6666E63ECDCC4C3F0000A04035
:101D3000000016436F12033B9A99993F118E0008D9
:101D4000040500204802002000002041D8050020A2
:101D50000000A041D4FEFFFFCC00002000007A4428
:101D6000F80400201C000020D4F8D80008F036FF4A
:101D700081467948016B484609F050F9804608F0E1
:101D8000C7FE07464FF4FA72514201F080FF064643
:101D90000A21304601F086FF0646314604F1A800CC
:101DA00001F052FC0746C822514201F070FF01B217
:101DB000C8200153BDE8F0872DE9FF5F044640F2DB
:101DC0000E60039065494868002109F033F802D29B
:101DD0006248406803E06148406880F00040074680
:101DE0005E490868002109F025F802D25B480068C6
:101DF00003E05A48006880F000400646394609F082
:101E000019F80DD255490868002109F013F802D2DB
:101E10005248006811E05148006880F000400CE032
:101E20004E494868002109F005F802D24B48406845
:101E300003E04A48406880F000400546484A0021D7
:101E400001F0EBFE834602F025FB46490968401A83
:101E5000029008F08FFA0746434A444B08F0DAFA3A
:101E6000054608F05BF9814602F014FB3D49086025
:101E7000B4F9C80008F0B2FE06463748416A304659
:101E800009F0CCF8054608F043FE01B2F0200153FA
:101E9000B4F9F01004F18C0001F0D6FB05464FF4C4
:101EA0009672514201F0F3FE01B2D4200153B4F90D
:101EB000F0104A4604F18C0001F097FBD421095B35
:101EC000084401B2D4200153B4F9F0104A4604F199
:101ED0008C0001F043FB0546C822514201F0D7FEB9
:101EE000D421095B084401B2D4200153B4F9D400D1
:101EF00008F074FE0290584601F0E5FE009007F0ED
:101F00002FFA80460399A1F57A7008F067FE4146E2
:101F1000019008F007FD0746154908F08FFC0646BA
:101F2000029908F08BFC054608F0F2FD0FFA80FAE2
:101F30001048007B48B140F26C7240F24C41504670
:101F400001F0A5FE01B20C484183BDE8FF9F10B52A
:101F50000A48FFF72FFD10BD0405002048020020AD
:101F60000000A041200000208DEDB5A0F7C6B03ED6
:101F700000007A44CC000020D80500202001002079
:101F800010B50446204600BF0446204607F06CFF0B
:101F9000044604F10C0007F067FFA0F10C0404F103
:101FA000180007F061FFA0F1180404F1240007F005
:101FB0005BFFA0F1240404F1300007F055FFA0F10D
:101FC000300404F13C0006F0E0FEA0F13C0404F112
:101FD000600006F0DAFEA0F1600404F1880006F06B
:101FE000E3FEA0F1880404F5C87006F0DDFEA0F55C
:101FF000C87404F527704FF07E5101600021C16064
:102000008160416000BFA0F52774204610BD10B567
:10201000044662224FF47A71F74803F077F810BD56
:1020200010B50446F54AF6492046FFF7E5FAF549AA
:10203000086004F13C03F14AF1492046FFF7F6FA43
:1020400004F16003F04AEE492046FFF7EFFAEF4A49
:10205000EB492046FFF75FFBEA49486010BD10B529
:1020600004462046FFF7DCFF2046FFF7D0FF10BDF7
:102070003EB50446E04803F01BF9DF4803F0EBF9F6
:10208000DD49684603F04BFA9DE80700C4E90412F5
:10209000E060D949684603F03BFA9DE80700C4E9CF
:1020A0000A1260623EBD3FB599B00446239DD848F0
:1020B000007810F0010F09D1D54806F0DAFE28B1FA
:1020C000D44807F0D1FED248AFF30080D248007860
:1020D00010F0010F09D1D04806F0CBFE28B1CF484F
:1020E00007F0C2FECC48AFF30080CD48007810F076
:1020F000010F0DD1CA4806F0BCFE48B14FF08B432A
:1021000000221146C74807F0ABFEC548AFF3008078
:10211000C548007810F0010F0CD1C34806F0A9FEA5
:1021200040B100231A46C149C14807F099FEBE4894
:10213000AFF300800AA807F041FEB84A1AA907A821
:1021400007F095FF07A807C813AB07C34FF07C52F1
:1021500013A904A807F06FFF04A807C816AB07C3AC
:102160002A4616A901A807F066FFAA4801A90EC9C8
:102170000EC0AA481AA90EC90EC0A6490AA807F09F
:1021800099FDA84A0AA907A807F0A8FEA54807A92B
:102190000EC90EC0A64A0AA907A807F09FFEA448C8
:1021A00007A90EC90EC0B4F8AC0280B2322818DDFF
:1021B000B4F8AC0280B2962813DA924840680490D2
:1021C00020A807C801AB07C39648806800909548CF
:1021D00021460CC807A8FFF775FB924807A90EC94E
:1021E0000EC021468F4807F005FE2146904807F0B3
:1021F0002BFE1DB030BD2DE9F04782460C468D49BF
:102200000968601A08F0B6F807468B4A8B4B08F04D
:1022100001F9054607F082FF81468648046048467A
:10222000BDE8F0872DE9F04395B004460EA807F00D
:10223000D9FD08A807F0D6FDD4E90A01CDE90001CF
:1022400004F13C02214605A8636AFFF79BFA05A842
:1022500007C8C4E90D122063D4E90401CDE90001E7
:1022600004F16002214605A8E368FFF78BFA05A890
:1022700007C8C4E90712A06104F1300529462846C1
:1022800007F0BDFE81466E4908F008FD80464FF01C
:10229000974108F047FB074608F03AFCC4F8AC0247
:1022A00002F0F8F8054629462046FFF7A4FF064647
:1022B000206A0090504905A8D4E9062303F036F9B6
:1022C0000396D4E90D12206B8DE80700204605A97E
:1022D0000EC9FFF7E8FE15B0BDE8F0832DE9F04127
:1022E0008CB080460C4603A807F068FD684607F0EE
:1022F000BBFD206801F0E7FC80F00045606801F05C
:10230000E2FC80F00046A06801F0DDFC0746009585
:102310000196029700BF694603A807F0CBFC04F1C1
:10232000300203A9404607F0D9FD0CB0BDE8F081AA
:10233000F0B599B00446219E0DA807F095FD0AA8B6
:1023400007F092FD07A807F08FFD1EAD284607F0A5
:1023500017FE07463946284607F08FFD00BF0DA936
:1023600004F5277001F0E0FD0DAA1EA904A807F0EE
:102370009AFE04A807C80AAB07C3324A0AA904A8F0
:1023800007F059FE04A807C816AB07C316A907A88B
:1023900007F087FD4FF080420AA904A807F04BFE22
:1023A00004A807C810AB07C307AA10A901A807F023
:1023B0005EFE01A807C813AB07C313A904F10C0004
:1023C00007F06FFD324604F10C0104F5277001F0AF
:1023D0001CFE04F5277001F0EDFC04F10803221D3A
:1023E000214604F5277001F0A2FF19B0F0BD10B529
:1023F0001548FFF7C5FD10BD3C060020000048420F
:102400006F12033BCC000020000002436666E63FEB
:102410003400002018020020300000202402002098
:102420002C0000203002002028000020000048433B
:102430003C020020240000208DEDB5A0F7C6B03E80
:102440000000C8426F12833A480200200146002073
:1024500005E04FF47A7221F81020421CD0B2062811
:10246000F7DB70472DE9F04F8FB004460D46164656
:102470009B46DDF86090484607F065FFCDE90A010C
:10248000584607F060FF0746914A924B07F0C2FF9B
:10249000CDE90601304607F056FF00228E4BCDE90C
:1024A000000107F0B7FF07468846284607F062FF9D
:1024B0003A464346CDE9020108F0AAF8CDE9040105
:1024C000DDE9062307F05CFECDE90801DDE90A231A
:1024D00007F056FECDE90C0107F006FF00B2A08020
:1024E000484607F030FFCDE90A01584607F02BFFB8
:1024F0000746774A774B07F08DFFCDE90601304656
:1025000007F021FF07460022734B07F083FFCDE958
:102510000201284607F02EFFCDE90001DDE9022384
:1025200008F076F8CDE90401DDE9062308F070F83B
:10253000CDE90801DDE90A2307F022FECDE90C010F
:1025400007F0D2FE00B26080484607F0FCFECDE9FD
:102550000A01584607F0F7FE07465D4A5D4B07F053
:1025600059FFCDE90601304607F0EDFE00225A4B37
:10257000CDE9000107F04EFF07468846284607F0E0
:10258000F9FE3A464346CDE9020107F0F9FDCDE9EF
:102590000401DDE9062307F0F3FDCDE90801DDE9DB
:1025A0000A2308F035F8CDE90C0107F09DFE00B2D2
:1025B0002080484607F0C7FECDE90A01584607F0DB
:1025C000C2FE0746424A434B07F024FFCDE906010D
:1025D000304607F0B8FE074600223F4B07F01AFFCF
:1025E000CDE90201284607F0C5FECDE90001DDE98D
:1025F000022307F0C5FDCDE90401DDE9062308F05B
:1026000007F8CDE90801DDE90A2308F001F8CDE972
:102610000C0107F069FE00B2E080A81BA0EB0900E6
:1026200000B26081A819484400B22081B4F900A02A
:10263000012007E034F91010514501DD34F910A0F4
:10264000411CC8B20628F5DB002719E040F26C7087
:10265000824507DD34F81710AAF26C70081A00B230
:1026600024F8170034F8171088B240F26C7240F268
:102670004C4101F001FB00B224F81700781CC7B2EE
:10268000062FE3DB1548407A10B92046FFF7DEFE3F
:102690001248007B40B91248C08840F2E2418842AB
:1026A00002DA2046FFF7D2FE21460E4803F02DFB4A
:1026B0000FB0BDE8F08F02880A8042884A80828885
:1026C0008A80C288CA8002890A8142894A81704709
:1026D00083C0CAA145B6EB3F0000E03FCC0000201C
:1026E000D80500209B00002010B50446204600BFFE
:1026F000044604F1100007F0B7FBA0F1100404F148
:102700001C0007F0B1FBA0F11C0404F1280007F045
:10271000ABFBA0F1280404F1340007F0A5FBA0F105
:10272000340404F1400007F09FFBA0F1400404F1E1
:10273000500006F02AFBA0F1500404F1740006F0EA
:1027400024FBA0F1740404F1B40007F08DFBA0F1A8
:10275000B4044FF082431A46194604F1B40007F05E
:1027600088FBFE4804F19804A0614FF48020A06229
:10277000FB4844F89809FB494FF09C000151FA4985
:102780004FF0A0000151F9494FF0A4000151F84960
:102790004FF0A8000151F7494FF0AC00015120461D
:1027A00010BD10B50446F44802F038FF10BD10B556
:1027B000044604F15003F14AF1492046FEF736FF82
:1027C00004F17403EF4AEE492046FEF72FFF10BDD7
:1027D00010B504462046FFF7EAFF2046FFF7E1FF69
:1027E00010BD01B5AEB017A807F03EFB14A807F066
:1027F0003BFBE54800680A2803D0E448007802283B
:102800007DD10020E14908705521E04803F022FC09
:102810000020DD49086001F03DFEDD490968401AED
:102820000F9007F0A7FDDB4ADB4BCDE9100107F065
:10283000F1FDCDE9120107F071FC1A9001F02AFEBA
:10284000D34908602E98C068129008F0C7F9024674
:1028500013902E9974312E98FFF70BF82E998860FB
:102860002E988068CD490968401A119008F0CEF979
:1028700012901A9908F056F8139008F049F901B22D
:102880002E9841802E988068C44908602E98B0F92F
:1028900002004FF4FA525142139001F0F8F901B2DC
:1028A0002E9841802E98B0F902006421139001F017
:1028B000F9F901B22E9841802E98C068B74909688D
:1028C000884205D1B6480078401CB549087002E03E
:1028D0000021B34801702E98C068B04908602E9856
:1028E000806800280FDD2E988068B0F57A7F0ADABC
:1028F000AB4800781E2806DA01212E9800E006E099
:1029000080F8D01003E000212E9880F8D0109E4867
:102910000068401C9C490860A2480068052803D153
:10292000954802F090FF0AE29E4800680A28FAD112
:1029300001F0B0FD9C490968401A0F9007F01AFD9C
:10294000944A954BCDE9100107F064FDCDE91201E1
:1029500007F0E4FB1A9001F09DFD93490860002107
:1029600090480160844802F06EFF834802F087FFC0
:10297000129008F033F9024613902E9950312E9898
:10298000FEF74EFF2E9948602E984168D0F8C4009B
:10299000081A119008F022F912901A9907F0C2FF54
:1029A000139008F0B5F801B22E9801802E98416876
:1029B000C0F8C4102E98B0F900004FF4487251428C
:1029C000139001F064F901B22E9801802E98B0F9AD
:1029D00000000A21139001F065F901B22E980180E0
:1029E0002E9890F8D00000287ED02E98B0F90200E2
:1029F000119008F0F3F812902E98406A0146119059
:102A0000129808F00BFB1390169801461290139839
:102A100007F014FF16902E98D0F8A00001460890F9
:102A20004FF07E5008F0FAFA099007F0DBFECDE98E
:102A30000C012E98B0F90200079007F084FC5B4A65
:102A40005B4BCDE9080107F0E5FCCDE90A01DDE9C2
:102A50000C2307F0DFFCCDE910012E98D0F8A00080
:102A60000C902E98406A0B900C9908F017F90D9075
:102A700007F0B8FECDE90E01DDE9102307F080FB79
:102A8000CDE9120107F04AFB01462E9841622E98CB
:102A9000D0F8AC00014608904FF07E5008F0BEFA26
:102AA000099007F09FFECDE90C012E9880680790F1
:102AB00007F049FC3D4A3E4BCDE9080107F0AAFC6E
:102AC000CDE90A01DDE90C2307F0A4FCCDE91001F2
:102AD0002E98D0F8AC000C902E98006B0B900C99AF
:102AE00008F0DCF80D9000E07BE007F07BFECDE91C
:102AF0000E01DDE9102307F043FBCDE9120107F0D9
:102B00000DFB01462E9801632E984068039007F054
:102B10001AFCCDE906012E988068019007F013FC9D
:102B2000224A234BCDE9020107F074FCCDE90401F0
:102B3000DDE9062307F06CFDCDE9080107F0EEFAA8
:102B40000B9007F04FFE1B4A1B4BCDE90C0107F021
:102B500061FCCDE910012E9830E00000FFCF743EFB
:102B6000CDCC4C3F52B87E3FA4707D3F0AD7A33BEB
:102B7000F6287C3F3333733F7C0600200000A040E2
:102B80000AD7A33C000048423C000020A0000020DF
:102B9000480000208DEDB5A0F7C6B03E4C000020E7
:102BA0005000002038000020440000209A99999994
:102BB0009999B93FFCA9F1D24D62503FD0F8CC00B1
:102BC0000D9007F0C0FBCDE90E01DDE9102307F001
:102BD000D7FACDE9120107F087FB2E99C1F8CC0096
:102BE000ADE02E98B0F90000119007F0F7FF1290B9
:102BF0002E98406A01461190129808F00FFA13902F
:102C0000169801461290139807F018FE16902E9809
:102C1000D0F8A400119016981090119908F03EF881
:102C200013902E98D0F89C0001460D904FF07E50E6
:102C300008F0F4F90F902E98B0F900000D9007F00D
:102C4000CDFF0E900F9908F029F811902E98D0F82A
:102C50009C000F902E98406A0E900F9908F01EF875
:102C60001090119907F0EAFD1290139907F0E6FD14
:102C700001462E9841622E98D0F8A80001460F9088
:102C80004FF07E5008F0CAF911902E984168D0F8A4
:102C9000CC0008440F9007F0A1FF1090119907F0A5
:102CA000FDFF13902E98D0F8A80011902E98006B7D
:102CB0001090119907F0F2FF1290139907F0BEFDE2
:102CC00001462E9801632E984068109007F086FF09
:102CD00011902E98006B01461090119808F09EF903
:102CE0000021129008F0A6F80DD22E98406811909D
:102CF00007F074FF12902E98006B01461190129805
:102D000008F08CF90EE02E984068119007F066FFED
:102D100012902E98006B01461190129808F07EF9DF
:102D200080F000409A49139008F084F807D22E985A
:102D30004068139007F052FF01462E9801639548B2
:102D40000068401C9349086001F0A4FB924909689F
:102D5000401A0F9007F00EFB904A914BCDE91001FD
:102D600007F058FBCDE9120107F0D8F91A9001F0ED
:102D700091FB894908608B4911A8FFF7AFFA11A8A8
:102D800007C817AB07C38848407A08BB2E98D0F80D
:102D9000C000C117139000EB916081112E98D0F8FC
:102DA000C000411A2E98C0F8C0102E98D0F8C0006C
:102DB000119007F013FF1290199801461190129884
:102DC00007F03CFD139007F0A3FE2E99C1F8C00058
:102DD0002E98D0F8C000C117139000EB91608011BD
:102DE000119007F0FBFE129019980146119012986D
:102DF00008F082F819902E98D0F8B4000F9007F0E0
:102E000087FE119017980F9007F082FE109011998D
:102E100000F048FF129007F0E1FE13902E98D0F8D2
:102E2000B00001461290139807F038FF2E99086100
:102E30002E98D0F8B8000F9007F06AFE11901898FD
:102E40000F9007F065FE1090119900F02BFF129083
:102E500007F0C4FE80F0004013902E98D0F8B00028
:102E600001461290139807F019FF01462E98416110
:102E70002E98D0F8BC000F9007F04AFE11901998D8
:102E80000F9007F045FE1090119900F00BFF129083
:102E900007F0A4FE13902E98D0F8B00001461290CF
:102EA000139807F0FBFE01462E9881612E9A40325E
:102EB0002E991C3111A807F0DAF811A807C824AB25
:102EC00007C324A90EA81A9A07F0B5F80EA807C8D8
:102ED00027AB07C34FF07C5227A90BA807F0ABF82C
:102EE0000BA807C82AAB07C32AA92E98283006F0DA
:102EF000D8FF2E98D0E90823C16940300EC02E9A21
:102F000034322E99103111A807F0B1F811A807C872
:102F10001BAB07C31BA90EA81A9A07F08CF80EA8C2
:102F200007C81EAB07C34FF07C521EA90BA807F0C1
:102F300082F80BA807C821AB07C321A92E981C3023
:102F400006F0AFFF2E98D0E90523016934300EC09A
:102F50002FB000BD10B5044600231A46194604F1EF
:102F6000100006F086FF00231A46194604F11C00E3
:102F700006F07FFF00231A46194604F1280006F0E8
:102F800078FF10BD10B50948FFF7AEFB10BD00007B
:102F90000000484338000020400000208DEDB5A01F
:102FA000F7C6B03E48020020CC00002004050020F7
:102FB00010B50446FE490888FE49098801F036FE2E
:102FC00010BD1CB50446FA490889694601F08AFC1F
:102FD000F74948890DF1020101F084FCF449888920
:102FE00001A901F07FFCBDF8000000B2F2490881A0
:102FF000BDF8020001B2F0484181BDF8040001B201
:10300000ED4881811CBD1CB50446E94948886946E4
:1030100001F068FCE64988880DF1020101F062FCCC
:10302000E349C88801A901F05DFCBDF8000000B2C9
:10303000E1494880BDF8020001B2DF488180BDF857
:10304000040001B2DC48C1801CBD38B50446D84933
:10305000C889694601F046FCBDF8000007F0D6FDBE
:103060000546D64907F05EFCD5490860D049088A74
:10307000694601F037FCBDF8000007F0C7FD0546C2
:10308000CE4907F04FFCCE494860C949488A694695
:1030900001F028FCBDF8000007F0B8FD0546C9495D
:1030A00007F040FCC6498860C149888A694601F03A
:1030B00019FCBDF8000007F0A9FD0546BF4907F05F
:1030C00031FCBF49C861BA49C88A694601F00AFCA7
:1030D000BDF8000007F09AFD0546B84907F022FC4C
:1030E000B7490862B249088B694601F0FBFBBDF89D
:1030F000000007F08BFD0546B24907F013FCB0490C
:103100004862AB49488B694601F0ECFBBDF8000012
:1031100007F07CFD0546A94907F004FCA84988632F
:10312000A349888B694601F0DDFBBDF8000007F07C
:103130006DFD0546A14907F0F5FBA149C8639C490F
:10314000C88B694601F0CEFBBDF8000007F05EFDBC
:1031500005469C4907F0E6FB994908649449088CA8
:10316000694601F0BFFBBDF8000007F04FFD0546C2
:10317000924907F0D7FB9249C1F8A8008C49488CC6
:10318000694601F0AFFBBDF8000007F03FFD0546C2
:103190008A4907F0C7FB8A49C1F8AC008449888C8A
:1031A000694601F09FFBBDF8000007F02FFD0546C2
:1031B000844907F0B7FB8249C1F8B0007C49C88C4C
:1031C000694601F08FFBBDF8000007F01FFD0546C2
:1031D0007A4907F0A7FB7A4948657549088D694621
:1031E00001F080FBBDF8000007F010FD05467349B3
:1031F00007F098FB724988656D49488D694601F072
:1032000071FBBDF8000007F001FD05466D4907F0B0
:1032100089FB6B49C8656649888D694601F062FB88
:10322000BDF8000007F0F2FC0546644907F07AFBA0
:10323000634908675E49C88D694601F053FBBDF8D4
:10324000000007F0E3FC05465C4907F06BFB5C49B6
:1032500048675749088E694601F044FBBDF80000F5
:1032600007F0D4FC0546574907F05CFB54498867D2
:1032700038BD10B504462046FFF7E7FE2046FFF7AD
:10328000C2FE2046FFF79DFE10BD70B505464C49B5
:1032900008684A4907F002FD064607F07FFC84B241
:1032A0004349C889214601F0C1FC45494868434962
:1032B00007F0F4FC064607F071FC84B23C49088A2A
:1032C000214601F0B3FC3E4988683E4907F0E6FC20
:1032D000064607F063FC84B23549488A214601F06E
:1032E000A5FC3749C869354907F0D8FC064607F000
:1032F00055FC84B22E49888A214601F097FC30495A
:10330000086A2E4907F0CAFC064607F047FC84B25B
:103310002749C88A214601F089FC2949486A294978
:1033200007F0BCFC064607F039FC84B22049088B44
:10333000214601F07BFC2249886B204907F0AEFC56
:10334000064607F02BFC84B21949488B214601F050
:103350006DFC1B49C86B194907F0A0FC064607F035
:103360001DFC84B21249888B214601F05FFC144990
:10337000086C144907F092FC064607F00FFC84B273
:103380000B49C88B214601F051FC0D49D1F8A8002A
:103390000A4907F083FC064607F000FC84B20449A2
:1033A000088C214601F042FC0549D1F8AC000BE045
:1033B000EEB10008520000203C0600200000C84288
:1033C0002001002000007A445E4907F067FC0646B1
:1033D00007F0E4FB84B25C49488C214601F026FCEE
:1033E0005A49D1F8B0005A4907F058FC064607F090
:1033F000D5FB84B25449888C214601F017FC53490F
:10340000486D504907F04AFC064607F0C7FB84B2F6
:103410004D49C88C214601F009FC4C49886D494949
:1034200007F03CFC064607F0B9FB84B24649088D1C
:10343000214601F0FBFB4549C86D454907F02EFCCC
:10344000064607F0ABFB84B23F49488D214601F0A8
:10345000EDFB3E49086F3B4907F020FC064607F0AC
:103460009DFB84B23849888D214601F0DFFB374946
:10347000486F344907F012FC064607F08FFB84B210
:103480003149C88D214601F0D1FB3049886F304960
:1034900007F004FC064607F081FB84B22A49088E37
:1034A000214601F0C3FB70BD38B5044626490888A3
:1034B000694601F017FABDF8000038BD10B50446A2
:1034C0002046FFF7F1FF23490988884202D02046B1
:1034D000FFF7DBFE2046FFF7CCFE2046FFF768FD36
:1034E00010BD10B504461C4A528891B2164A508845
:1034F00001F09CFB184A928891B2134A908801F01F
:1035000095FB154AD28891B20F4AD08801F08EFB04
:1035100010BD10B50446104A128991B20A4A1089AA
:1035200001F084FB0C4A528991B2074A508901F09C
:103530007DFB094A928991B2034A908901F076FB9A
:1035400010BD00000000C842EEB1000820010020BC
:1035500000007A44520000203C0600202DE9F05F74
:1035600004460E4617460021A06807F09DFA3AD09F
:103570000021384607F098FA35D0A06920F00041C4
:10358000C1F1FF41C90F19B100250020A06108E079
:103590006169701A07F022FB8046394607F0C2F9CC
:1035A00005462846A16907F039FD82463946454857
:1035B00007F044F983465946384607F0B3F9814687
:1035C000514607F06BFB8046A16907F037F90546C5
:1035D0006661A5612946A06807F060FB804607F098
:1035E00097FABDE8F09F0020FBE72DE9F04704467D
:1035F0000E4615460021606807F056FA22D00021D9
:10360000284607F051FA1DD0304607F0E7FA814608
:10361000616807F043FB8046294607F03FFB0746F9
:10362000216907F00BF92061E06880F0004702464D
:103630003946206900F0F1FA2061206907F068FA44
:10364000BDE8F0870020FBE72DE9F04104460D4678
:10365000284607F0C3FA0746216807F01FFB064615
:1036600007F056FABDE8F0812DE9F04104460D4619
:10367000164629462046FFF7E7FF07463246294609
:103680002046FFF7B2FF0744324629462046FFF79F
:1036900065FF3844BDE8F0812DE9F04104460D4650
:1036A000164629462046FFF7CFFF074632462946F1
:1036B0002046FFF79AFF3844BDE8F0810021016100
:1036C000704700000361023C30B50146002013E062
:1036D00000FB00F2193A32235A4302F6C412424365
:1036E0005A4340F6C41392FBF3F213B201F11C02E9
:1036F00022F81030421CD0B20728E9DB00202EE06F
:1037000000EB80046400A4F132020123002A00DDF2
:103710003223002A00DA3223002503FB03F495FB51
:10372000F4F4643454430A2594FBF5F404F5FA7474
:1037300025B201F12A0424F8105034F910404FF456
:1037400048756C434FF47A7594FBF5F404F24C44DD
:1037500025B201F12A0424F81050421CD0B20C28E2
:10376000CEDB30BD10B504462046FFF7ADFF204646
:1037700010BD2DE9F05F0446002060E034F8101021
:10378000A1F2DC51002904DD34F81010A1F2DC5163
:1037900004E034F8101040F2DC52511AB1F5FA7F0F
:1037A00010DA34F81010A1F2DC51002904DD34F8ED
:1037B0001010A1F2DC5107E034F8101040F2DC5296
:1037C000511A01E04FF4FA710E4602281FD064210D
:1037D00096FBF1F504F11C016A1C31F9122031F954
:1037E0001510511A05EBC50202EB0512A6EB820279
:1037F0005143642291FBF2F204F11C0131F81510DF
:1038000011440AB204F1140121F8102005E07142BC
:103810000AB204F1140121F8102034F8101040F21B
:10382000DC52914209DA04F1140131F810104942D6
:103830000AB204F1140121F81020411CC8B2032877
:103840009CDBE0884FF4FA6240F2E24100F014FAA7
:103850000646A6F2E2404FF47A71484340F2EE2168
:10386000B0FBF1F6642096FBF0F59548007B08BBB1
:1038700004F12A00691C30F9111030F91500081AFA
:1038800005EBC50101EB0511A6EB8101484364215D
:1038900090FBF1F104F12A0030F81500084401B260
:1038A0006183E0884FF4FA6240F2E24100F0E4F90B
:1038B00001B26183B4F91800002802DDB4F91800E0
:1038C00002E0B4F918004042462833DAE08840F2BA
:1038D000E24188422EDD7B4AD2F89812906807F0C8
:1038E0009DFB804607F014F907B217F1B40F02DC14
:1038F00007F5B47007B2B42F02DBA7F5B47007B2B6
:10390000784207B2384607F069F983466E48016F7E
:10391000584607F0C3F98146B4F9180007F05EF97C
:103920008246494607F07AFB804607F0F1F801B27B
:10393000218304E0634880686249C1F89802BDE8C9
:10394000F09F0146002034E031F81020B2F5617F8D
:1039500004DB31F81020B2F5FA6F00DD2BE031F80E
:10396000102040F2E2439A4207DA584A125C584B60
:103970001B781A43564B1A7006E0544A135C544A9B
:1039800012789A43524B1A7031F81020B2F5E16F59
:1039900007DD504A125C4E4B1B781A434C4B1A7091
:1039A00006E04C4A135C4A4A12789A43484B1A7014
:1039B000401C0428C8DB00BF454A12784AB1464A79
:1039C0001278FA2A0ADA444A1278521C424B1A70C8
:1039D00004E00022404B1A703D4B1A703E4A1278A8
:1039E000642A29D1364A527A6AB1394A127812F0D9
:1039F000100F1CD0364A127812F0400F17D0002357
:103A00002F4A537213E0324A127812F0200F0ED070
:103A10002F4A127812F0400F09D0294A127A1AB1AF
:103A20000123274A537202E001222C4B5A700022D4
:103A3000274B1A70284B1A70704710B50446284857
:103A40004089002836DD2648408940F63401884206
:103A500030DA23484089002809DD2148408940F2B6
:103A60001451884203DA00211548017322E01C48F2
:103A70004089B0F5AF6F0EDD19484089B0F5C86FC9
:103A800009DA0F48007BA8B901210D4801730E48DF
:103A9000FDF7B9FF0EE01248408940F2A461884268
:103AA00008DD0F48408940F63401884202DA0121DE
:103AB0000348017310BD00B50948FFF753FE00BD70
:103AC000CC0000204802002020010020E6B10008C0
:103AD00056000020EAB10008550000203C060020F6
:103AE000D805002010B53848FCF778FE3648FDF7B9
:103AF00094FB10BD10B53548FEF7BAFA3348FEF70F
:103B000091FB3348FEF716F83248FEF76AFE10BD07
:103B100010B52F48FDF780FF10BD10B500F0CCFDAB
:103B200010BD10B52C48FFF724FE2B48FFF709FF06
:103B30002948FFF782FF2448FDF739FD2748FCF7A5
:103B40003EFB2348FEF7A8F82148FEF735F910BDE3
:103B500010B523480088012804DBFFF7C3FF0020CD
:103B60001F4908801E484088022804DBFFF7C2FF77
:103B700000201B4948801A488088052804DBFFF78D
:103B8000C7FF0020164988801548C0880A2804DB32
:103B9000FFF7C3FF00201249C8801148008914288C
:103BA00004DBFFF7BEFF00200D49088110BD002196
:103BB0000181C180818041800180704700B5084843
:103BC000FFF7F5FF00BD0000DC00002048020020E8
:103BD0002001002004050020D8050020CC00002092
:103BE0001A06002010B50446204605F02AF908B14F
:103BF000002010BD4FF07E51204607F01BF901D880
:103C00006748F6E76749204607F014F801D8664888
:103C1000EFE7204605F0E6F9EBE72DE9F04106462F
:103C20000C461546304605F00CF950B129462046A1
:103C300006F004FE07464FF07C5107F02FF8BDE870
:103C4000F0812146304606F0F5FF01D22046F6E726
:103C50002946304607F0EEF801D22846EFE7304615
:103C6000EDE703468B4201DA08467047934201DDD7
:103C70001046FAE71846F8E703468B4201DA084691
:103C80007047934201DD1046FAE71846F8E703460D
:103C90008B4201DA08467047934201DD1046FAE78D
:103CA0001846F8E7002801DD024600E042428A4259
:103CB00001DA002006E0002801DD401A02E00028B9
:103CC00000DA0844704710B504463849204606F02B
:103CD000E5FF10BD10B504463549204606F0DEFF6D
:103CE00010BD10B504462146204606F0D7FF10BD92
:103CF0002DE9F04105460C462046FFF7F2FF074646
:103D00002846FFF7EEFF8046394606F097FD064647
:103D100005F0BAFFBDE8F0812DE9F05F06460C46DC
:103D200015462846FFF7DDFF81462046FFF7D9FFFD
:103D300082463046FFF7D5FF8346514606F07EFDAA
:103D40008046494606F07AFD074605F09DFFBDE82E
:103D5000F09F2DE9FE4F07460C4615461E4630469D
:103D6000FFF7BFFF02902846FFF7BBFF01902046F8
:103D7000FFF7B7FF00903846FFF7B3FF834600997F
:103D800006F05CFD8246019906F058FD81460299D5
:103D900006F054FD804605F077FFBDE8FE8F000079
:103DA000DB0FC93F000080BFDB0FC9BF34FA8E3C78
:103DB000E12E654270B5044694E80F00FFF7C9FF95
:103DC00005462946206806F0ADFD2060294660685A
:103DD00006F0A8FD60602946A06806F0A3FDA0607B
:103DE0002946E06806F09EFDE06070BD2DE9F04FC9
:103DF00085B004460D46A168084606F04FFF074609
:103E0000D4E9020106F04AFF80466168084606F0E0
:103E100045FF8146D4E9010106F040FF8246E16892
:103E2000606806F03BFF0490D4E9000106F036FF1D
:103E30000390A168206806F031FF0290E1682068D5
:103E400006F02CFF0190E168084606F027FF00907D
:103E50003846009906F0F2FC83464FF0804106F0A8
:103E60001DFF06464FF07E5107F046F82860504689
:103E7000019907F0D3F806464FF0804106F00EFF97
:103E800068600299049806F0D9FC06464FF080411C
:103E900006F004FFA8605046019906F0CFFC0646E4
:103EA0004FF0804106F0FAFEE8604846009906F0BF
:103EB000C5FC83464FF0804106F0F0FE06464FF009
:103EC0007E5107F019F828614046039907F0A6F8DB
:103ED00006464FF0804106F0E1FE686102990498C1
:103EE00007F09CF806464FF0804106F0D7FEA86127
:103EF0004046039906F0A2FC06464FF0804106F0CA
:103F0000CDFEE8613946484606F098FC83464FF0FE
:103F1000804106F0C3FE06464FF07E5106F0ECFFEE
:103F2000286205B0BDE8F08F2DE9F04704460D4644
:103F3000A168206806F0B2FE0746E168606806F0F6
:103F4000ADFE8046394607F069F806464FF08041DD
:103F500006F0A4FE2860D4E9020106F09FFE0746A1
:103F6000D4E9000106F09AFE8046394606F066FC68
:103F700006464FF0804106F091FE6860A168084651
:103F800006F08CFE80466168084606F087FE814692
:103F9000414606F053FC07464FF0804106F07EFE96
:103FA00006464FF07E5106F0A7FFA860BDE8F087F7
:103FB00070B58CB006460C4603AD284605F054FF9C
:103FC000054605F10C0005F04FFFA0F10C0505F1C9
:103FD000180005F049FFA0F1180500BFA06880F0A7
:103FE0000040A06003A93046FFF700FF224603A966
:103FF000684605F073FF9DE8070084E80700A068A5
:1040000080F00040A0600CB070BD2DE9F04F8FB083
:10401000044689469246504606F0E4FBCDE9080185
:10402000D9F80810E06806F039FE0490D9F80410B9
:10403000A06806F033FE0390606880F000400190B5
:10404000D9F8001006F02AFE0290039906F0E6FF68
:104050008346049906F0E2FF059006F0C3FB07468D
:104060000022F74B06F0D6F9CDE90601DDE9082379
:1040700006F0D0F905460E46206806F0B3FB2A4646
:104080003346CDE90A0106F07BF8CDE90C0106F0D4
:1040900045F82060504606F0A5FBCDE90601D9F8A9
:1040A0000410E06806F0FAFD0490D9F80810A06842
:1040B00006F0F4FD0390D9F80010206806F0EEFD3C
:1040C0000290039906F0BAFB8346049906F0A6FF16
:1040D000059006F087FB07460022D94B06F09AF9B7
:1040E0000546DDE9062306F095F9CDE90A01606889
:1040F00006F078FBCDE90801DDE90A2306F040F877
:10410000CDE90C0106F00AF86060504606F06AFB43
:10411000CDE90801D9F80010E06806F0BFFD049071
:10412000D9F80810606806F0B9FD0390D9F80410BA
:10413000206806F0B3FD0290039906F06FFF8346F6
:10414000049906F07BFB059006F04CFB0022BC4B6B
:10415000CDE9060106F05EF90746DDE9082306F021
:1041600059F9CDE90A01A06806F03CFB0546DDE9F6
:104170000A2306F005F8CDE90C0105F0CFFFA06099
:10418000504606F02FFBCDE90601D9F80010A068D3
:1041900006F084FD0390D9F80410606806F07EFDF7
:1041A0008346D9F80810206806F078FD5946029039
:1041B00006F044FB8046039906F030FF074606F000
:1041C00011FB054600229E4B06F024F9CDE90401BF
:1041D000DDE9062306F01EF9CDE90A01E06806F0E4
:1041E00001FBCDE90801DDE90A2305F0C9FFCDE9AE
:1041F0000C0105F093FFE0600FB0BDE8F08F2DE9F2
:10420000F04F85B004460D4616461F464FF07C51D0
:10421000284606F043FD824605F0A2F880464FF09E
:104220007C51304606F03AFD824605F099F8814609
:104230004FF07C51384606F031FD824605F090F88B
:1042400004904FF07C51284606F028FD824605F088
:1042500055FC03904FF07C51304606F01FFD82461E
:1042600005F04CFC02904FF07C51384606F016FDEC
:10427000824605F043FC0190DDE9021006F00EFDD8
:104280000090019906F00AFD82464946404606F034
:1042900005FD0090049906F001FD8346514606F0A5
:1042A000CDFA20604046029906F0F8FC0090019992
:1042B00006F0F4FC82464946039806F0EFFC0090B5
:1042C000049906F0EBFC8346514606F0A7FE6060B9
:1042D0004946039806F0E2FC0090019906F0DEFCE6
:1042E00082464046029906F0D9FC0090049906F0F7
:1042F000D5FC8346514606F0A1FAA060DDE9021024
:1043000006F0CCFC0090049906F0C8FC82464946B1
:10431000404606F0C3FC0090019906F0BFFC8346BE
:10432000514606F07BFEE06005B0BDE8F08F2DE958
:10433000FE4F04460D4616461F468DB3A16808463B
:1043400006F0ACFC01906168084606F0A7FC0090FE
:10435000019906F073FA83464FF0804106F09EFC07
:1043600082464FF07E5106F0C7FD8146D4E9020136
:1043700006F094FC8346D4E9000106F08FFC594610
:10438000019006F05BFA82464FF0804106F086FC11
:104390004946029004F0BAFE8046FFF79BFC286075
:1043A000C6B1E168606806F079FC8346A1682068C0
:1043B00006F074FC5946029006F030FE82464FF03B
:1043C000804106F06BFC8146FFF70CFC8046FFF74E
:1043D00081FC30608FB36168084606F05FFC019095
:1043E0002168084606F05AFC0090019906F026FA6A
:1043F00083464FF0804106F051FC82464FF07E51DB
:1044000006F00CFE0290E168206806F047FC834647
:10441000D4E9010106F042FC5946019006F0FEFD88
:1044200082464FF0804106F039FC8146029904F043
:104430006DFE8046FFF74EFC3860BDE8FE8F000041
:104440000000E03F00B585B0684602F0C6FF504965
:104450000098B0FBF1F04F49086005B000BD4E4830
:104460000068401C4C4908604C480088401C4B497F
:10447000088008464088401C488008468088401CC8
:1044800088800846C088401CC88008460089401CB7
:104490000881704700BF404801684FF0E020826902
:1044A0003D4800688142F6D13A48006800EB40037D
:1044B000C3EBC010C2EBC000364B1B68B0FBF3F07F
:1044C00001EB4103C3EBC11300EBC300704730B5F0
:1044D0000446FFF7DFFF054600BFFFF7DBFF401B89
:1044E000A042FAD330BD10B5044603E04FF47A7011
:1044F000FFF7EDFF2000A4F10104F7D110BD70B566
:104500004FF4407001F024FEFFF79CFF2448006840
:104510004FF47A72B0FBF2F1481EB0F1807F00D305
:104520001BE0481E4FF0E022506150170F22002878
:1045300007DA13071D0E1B4B00F00F04241F1D5537
:1045400003E013071C0E184B1C5400BF00204FF053
:10455000E02290610720106100BF00F07EFB01F0B7
:104560001DFCF0220421114801F0D9F945F6C05094
:1045700001F01CFB4FF4165001F0B2FC00F050FDAE
:1045800000F094F802F0C1F900F0CBFA70BD000021
:1045900040420F00580000205C0000201A06002056
:1045A000B800002018ED00E000E400E0A4060020C0
:1045B00008B50121084602F070FF01214FF4017097
:1045C00002F078FF1020ADF8000000208DF8030005
:1045D0006946614802F0B8FC08BD00B591B05F487B
:1045E00002F04CF85E4806905E4807900020089064
:1045F0000120099000200A9080200B9040000C9030
:1046000080000D9020200E9000020F90002010904E
:1046100006A9524802F0D4F80121504802F0FBF8F4
:10462000002001908DF8080001208DF809004FF45A
:10463000602003900020049001208DF8140001A94F
:1046400047484C3801F019FE4FF4404002F099FE03
:1046500005230122042142484C3801F0A6FE012125
:104660003F484C3801F040FE01213D484C3801F0F4
:1046700030FE3B484C3801F04EFE00BF38484C3805
:1046800001F04EFE0028F9D135484C3801F052FEB9
:1046900000BF33484C3801F052FE0028F9D1012107
:1046A0002F484C3801F055FE11B000BD10B5FFF792
:1046B0007FFFFFF792FF10BD2DE9F84F29480088D2
:1046C00006F0A4FA009006F08DF80646264A274B1D
:1046D00005F0A0FE04460D462548006806F082F865
:1046E0000646244A244B05F095FE804622462B467A
:1046F00005F046FD824605F011FD1D4908604FF0AA
:104700008B411B48006806F00DF9824606F06AF8F6
:1047100006464FF06632194B05F07CFE80460022BB
:104720004FF0804305F076FE044605F0F7FC14498F
:1047300008600846006806F055F804460022114B50
:1047400005F02CFE03D201210F48417302E0002145
:104750000D484173BDE8F88F000801400800024091
:104760004C24014060000020FCA9F1D24D62603F62
:1047700064000020560E2DB29DEFEF3F66660A40A2
:104780006800002000000C40CC00002003460621F9
:104790000622FA480188FA480288A3B1012B1AD1EF
:1047A00032B9A1F56E40EE3800D170470120FCE728
:1047B00039B9A2F56E40EE3801D10120F5E70020AD
:1047C000F3E7AB20F1E709B90020EEE70AB90120D1
:1047D000EBE7AB20E9E70020E7E770B5042600240B
:1047E0000120FFF7D3FF0446AB2C06D1E34800EBD2
:1047F0008420E4490860AB2070BDE04800EB8420D1
:10480000E0490860601CDD49891E01EB80250CE051
:10481000DC4800680068401C02D104263046EBE703
:10482000D8480068001DD7490860D6480068A842EB
:10483000EED38020E0E710B50424D04802F0AAF8B7
:104840000446042C01D0204610BD0021CB4802F0C4
:10485000A4F90446042C01D02046F5E7C84802F02C
:1048600099F804462046EFE72DE9F04104460F464B
:1048700004250026DFF810830120FFF787FF064696
:10488000AB2E01D1BDE8F081701CBC49891E01EB43
:10489000802821E0BB4800680068401C17D13946D9
:1048A000B848006802F079F90546042D01D0284681
:1048B000E8E72146B3480068801C02F06EF905461F
:1048C000B0480068001DAF4908602846DAE7AD48E7
:1048D0000068001DAB490860AA4800684045D9D36C
:1048E0008020CFE72DE9F04706460F46002545F228
:1048F00055584FF00109A14CA2460020FFF746FF92
:104900000546AB2D01D1BDE8F0879C4800EB852A18
:104910009C480068841E0AE0B4F80080B04505D1C8
:1049200034F8020C38804FF0000904E0241F0AF12B
:1049300002008442F0D800BF4846E4E72DE9F04782
:104940004FF0060A062600250027A8464FF0FF393B
:104950008A48B0F800A08A4806885FEA0A0074D046
:10496000A0F56E40EE382AD0A0F5885011386DD1F0
:1049700046B9824802F00EF80446042C1ED02046A8
:10498000BDE8F087A6F56E40EE3810D17B4802F006
:1049900001F80446042C01D02046F1E700217848B4
:1049A00002F0FBF80446042C08D02046E8E7FFF7A5
:1049B00042FF0446042C01D02046E1E7AEE07EBB76
:1049C000002522E06D48C088704931F815108842F2
:1049D00001D10FFA85F94D4515D06C4931F8150014
:1049E0006B49FFF77FFF8046B8F1010F0BD0674995
:1049F00031F8150066490988FFF736FF0746042F8E
:104A000001D03846BCE7681C85B2192DDADB0021DD
:104A10005A4802F0C2F80446042C02D02046AFE700
:104A200007E0574801F0B6FF0446042C1FD020468B
:104A3000A6E7A6F57F40FF3812D1514801F0AAFF42
:104A40000446042C03D020469AE711E05EE00021E2
:104A50004A4802F0A2F80446042C08D020468FE70A
:104A6000FFF7E9FE0446042C01D0204688E755E014
:104A700036B9FFF7E0FE0446042C46D020467FE717
:104A8000A6F57F40FF3807D13D4801F083FF04467B
:104A9000042C3AD0204673E7002523E03848801DD7
:104AA00000883A4931F81510884201D10FFA85F98A
:104AB0004D4515D0354931F815003549FFF712FF3E
:104AC0008046B8F1010F0BD0304931F8150030495C
:104AD0000988FFF7C9FE0746042F01D038464FE783
:104AE000681C85B2192DD9DB0021254802F055F844
:104AF0000446042C01D0204642E7204801F04AFF3A
:104B00000446042C01D020463AE707E0FFF793FE65
:104B10000446042C01D0204632E700BF00BF042029
:104B20002EE710B5FFF70AFF0446FFF756FE2046B2
:104B300010BD2DE9F84F074689460425DFF840A04F
:104B4000AAF1010A0D4800904FF000080024002649
:104B50004FF0000B0020FFF719FE8046B8F1010F5F
:104B600004D1DFF818A00648009016E0B8F1000F55
:104B700010D1DFF80CA0014800900EE00000010801
:104B80000004010870000020FF070108EEB10008D2
:104B90006C000020AB20BDE8F88F4EF6EE61504669
:104BA00001F0FBFF0546042D01D02846F3E7FFF78F
:104BB00014FE49463846FFF757FE0646042E01D03C
:104BC0003046E8E700241CE0214830F81400B842E1
:104BD00015D01F4931F814001E49FFF783FE8346A4
:104BE000BBF1010F0BD01A4931F81400194909889B
:104BF000FFF73AFE0646042E01D03046CBE7601C94
:104C000084B2192CE0DB009801F0C4FE0546042DA7
:104C100001D02846BFE70021504601F0BEFF0546FF
:104C2000042D01D02846B6E72846B4E770B50546FE
:104C30000E46002431462846FFF716FE0446802C17
:104C400004D131462846FFF774FF0446204670BD64
:104C5000EEB100086C000020704708B50121082063
:104C600002F028FC4020ADF8000003208DF802007F
:104C700014208DF803006946E84802F065F98020A9
:104C8000ADF8000003208DF8020014208DF8030019
:104C90006946E24802F058F908BD704700B5014680
:104CA0004020DE4A143210600846FFF7F6FF8020ED
:104CB000DA4A143210600846FFF7EFFF4020D74A67
:104CC000103210600846FFF7E8FF8020D34A103208
:104CD00010600846FFF7E1FF00BD00B50146402027
:104CE000CE4A143210600846FFF7D7FF8020CB4A27
:104CF000103210600846FFF7D0FF4020C74A10323C
:104D000010600846FFF7C9FFC4480830006810F07B
:104D1000800F08D04020C14A143210600846FFF7C7
:104D2000BCFF002000BD4020BC4A14321060084681
:104D3000FFF7B3FF0120F5E710B5024608231DE099
:104D40004020B64C143420601046FFF7A6FF11F047
:104D5000800F03D08020241F206003E08020AF4C10
:104D6000143420604806010E1046FFF796FF4020DD
:104D7000AA4C103420601046FFF78FFF1800A3F1F3
:104D80000104E3B2DCD14020A44C1434206010BDF7
:104D900000B501468020A14A10321060402010600A
:104DA0000846FFF77AFF9D480830006808B90120DF
:104DB00000E0002010F0800F01D0002000BD802016
:104DC000964A143210600846FFF767FF9348083090
:104DD000006810F0800F01D00020EFE780208F4A9C
:104DE000143210600846FFF758FF0120E6E7F0B5DF
:104DF00006460F4614461D463046FFF7C9FF08B960
:104E00000020F0BD39463046FFF796FF3046FFF7E9
:104E100064FF20B93046FFF741FF0020F1E721464B
:104E20003046FFF789FF3046FFF757FF29463046E7
:104E3000FFF782FF3046FFF750FF3046FFF72EFFA7
:104E40000120DEE700B501464020744A14321060AC
:104E50000846FFF722FF8020704A10321060084693
:104E6000FFF71BFF40206D4A103210600846FFF725
:104E700014FF4020694A143210600846FFF70DFF06
:104E800000BD10B50246082300218020634C103479
:104E9000206016E04806010E4020604C143420606B
:104EA0001046FFF7FAFE4020241F20601046FFF74F
:104EB000F4FE5A480830006810F0800F01D041F02D
:104EC00001011800A3F10104E3B2E3D14020534CE7
:104ED00014342060084610BDF0B506460C46154651
:104EE0003046FFF755FF08B90020F0BD2146304697
:104EF000FFF722FF3046FFF7F0FE20B93046FFF7FC
:104F0000CDFE0020F1E729463046FFF715FF304679
:104F1000FFF7E3FE3046FFF73BFF601CC1B23046AF
:104F2000FFF70AFF3046FFF7D8FE3046FFF7A9FF2C
:104F300007463046FFF786FF3046FFF7AFFE38469C
:104F4000D3E700B501464020344A143210600846C9
:104F5000FFF7A3FE8020314A143210600846FFF7A5
:104F60009CFE40202D4A103210600846FFF795FE47
:104F700040202A4A143210600846FFF78EFE00BD1A
:104F80002DE9F04381460E4617461C46DDF81C808D
:104F9000B8F1010F02DA0020BDE8F0834846FFF7C0
:104FA000F7FE08B90020F7E731464846FFF7C4FE90
:104FB0004846FFF792FE20B94846FFF76FFE0020F3
:104FC000EAE739464846FFF7B7FE4846FFF785FE51
:104FD0004846FFF7DDFE701CC1B24846FFF7ACFE45
:104FE0004846FFF77AFE012509E04846FFF749FFEA
:104FF00004F8010B4846FFF7A4FF681CC5B24545FD
:10500000F3DB4846FFF73DFF04F8010B4846FFF786
:1050100019FF4846FFF742FE0120BDE7000C0140A2
:1050200008B50121102002F045FA0121102002F0FC
:1050300041FA10208DF8030003208DF802004FF490
:105040008040ADF800006946154801F07DFF4FF43F
:105050000050ADF800006946114801F075FF08BD29
:1050600010B504464FF480410D4802F018F810BD09
:1050700010B504464FF40051094802F010F810BD75
:1050800010B504464FF48041054802F00AF810BDFF
:1050900010B504464FF40051014802F002F810BD6B
:1050A0000010014010B504462046FFF7D5FD044628
:1050B000A01C04F00AFF841E04F1080004F005FFA0
:1050C000A0F1080404F11C0004F0CEFEA0F11C04C1
:1050D00004F1280004F0C8FEA0F1280404F1340013
:1050E00004F0C2FEA0F13404204610BD30B50346E2
:1050F000C822002007E000BF1400A2F10105AAB2F7
:10510000FAD1441CE0B28842F5DB30BD2DE9F04114
:1051100007460D4616462A2E15D006DC052E0CD065
:105120000A2E0CD0142E16D10BE0622E0DD0BC2E00
:105130000DD0B6F5807F0ED10BE006240DE00524DE
:105140000BE0042409E0032407E0022405E0012425
:1051500003E0002401E0022400BF00BF80236B2293
:10516000D0213846FFF743FE05213846FFF7BEFF42
:105170004FF47A7090FBF5F0401E00F0FF084346B4
:105180001922D0213846FFF732FE03236B22D021AB
:105190003846FFF72CFE02233722D0213846FFF78E
:1051A00026FE23461A22D0213846FFF720FE182378
:1051B0001B22D0213846FFF71AFE10231C22D021D3
:1051C0003846FFF714FEBDE8F0812DE9F0410446B2
:1051D000207800286AD0EA48007810F0010F09D141
:1051E000E74803F046FE28B1E64804F03DFEE448F7
:1051F000AFF30080E448008880B900231A461946BE
:10520000A01C04F067FE00231A461946DD4804F08E
:1052100030FE0120DC490880BDE8F08104F11C016A
:10522000D84804F03EFED8480088C82839D1D6486E
:10523000008805F0EBFC0646D2490868314605F0C7
:1052400071FB054605F064FC00B26080CE48008822
:1052500005F0DCFC0646CB494868314605F062FBA8
:10526000054605F055FC01B2A180C748008805F04D
:10527000CDFC0746C3498868394605F053FB06460E
:105280004FF08B4105F0CAFE054605F041FC01B226
:10529000E1800020BC4908802070BC48FEF721F95D
:1052A000BAE7B9480088401CB749088000BFB3E797
:1052B0002DE9FC4104463C22D0212046FFF70CFE9C
:1052C000A0733B22D0212046FFF706FEE073A17BAE
:1052D000E07B41EA00206188401A00B2ADF800008E
:1052E0003E22D0212046FFF7F7FD20743D22D02139
:1052F0002046FFF7F1FD6074217C607C41EA0021CB
:10530000A088081A00B2ADF802004022D021204641
:10531000FFF7E2FDA0743F22D0212046FFF7DCFD1D
:10532000E074A17CE07C41EA0021E088081A00B228
:10533000ADF80400BDF9040005F050FC0546BDF9C8
:10534000020005F04BFC0646BDF9000005F046FCE6
:1053500007462B463246394604F11C0004F089FD0D
:105360002046FFF732FFBDE8FC8170B50446607847
:1053700000286ED08648007810F0010F09D18448CB
:1053800003F077FD28B1834804F06EFD8048AFF349
:1053900000808148008880B900231A46194604F12C
:1053A000080004F097FD00231A461946794804F0D6
:1053B00060FD01207849088070BD04F1280175481E
:1053C00004F06FFD74480088C8283DD172480088F9
:1053D00005F01CFC06466F490868314605F0A2FA44
:1053E000054605F095FB00B220816B48008805F06A
:1053F0000DFC064667494868314605F093FA0546B4
:1054000005F086FB01B261816348008805F0FEFB70
:10541000064660498868314605F084FA054605F07D
:1054200077FB01B2A18100205B49088060705B4876
:10543000007A28B901215948417201205749087260
:105440005248FEF766F8B7E753480088401C5249B7
:10545000088000BFB0E72DE9FC4104464422D0217A
:105460002046FFF739FD20754322D0212046FFF763
:1054700033FD6075217D607D41EA00202189401A5D
:1054800000B2ADF800004622D0212046FFF724FDEF
:10549000A0754522D0212046FFF71EFDE075A17DB5
:1054A000E07D41EA00216089081A00B2ADF80200EF
:1054B0004822D0212046FFF70FFD20764722D02139
:1054C0002046FFF709FD6076217E607E41EA0021DB
:1054D000A089081A00B2ADF80400BDF9040005F077
:1054E0007DFB0546BDF9020005F078FB0646BDF9D7
:1054F000000005F073FB07462B463246394604F19F
:10550000280004F0B6FC2046FFF72FFFBDE8FC8121
:1055100010B5D1E90834CA6980E81C0010BD10B587
:10552000D1E90B348A6A80E81C0010BD0FB470B555
:1055300005460C461A49069805F0B0FB0646FEF7EC
:10554000C2FB60631649079805F0A8FB0646FEF704
:10555000BAFBA0631249089805F0A0FB0646FEF7C7
:10556000B2FBE063D4E90E12606B85E8070070BC03
:105570005DF814FB10B50B48FFF794FD10BD00005B
:1055800078000020240600207C0000205400002029
:10559000800000203006002084000020CC00002085
:1055A0008DC1793D3C06002010B5044601235822E8
:1055B000EE212046FFF71BFC10BD7CB50546002000
:1055C00001900026002418E002200090A02000EBAB
:1055D0004400C2B201ABEE212846FFF7D1FC3044B3
:1055E000C6B29DF805009DF8041040EA012105F1BE
:1055F000100020F81410601CC4B2082CE4DB082E44
:1056000001D101207CBD0020FCE710B50446012338
:105610001E22EE212046FFF7EAFB10BD10B504461E
:105620000A20FEF760FF2046FFF7EFFF0320FEF79A
:105630005AFF2046FFF7C1FF2046FFF7B5FF10BD18
:1056400010B5044601234822EE212046FFF7CFFB88
:1056500010BD38B50446032004F120030022EE21DA
:1056600000902046FFF78CFC38BD2DE9F04F8BB041
:1056700004464FF00008C14694F8200001042120A0
:10568000005D41EA00202221095D0843A06094F8F2
:10569000230001042420005D41EA00202521095D4A
:1056A0000843E060608BA168A1EB0025A08A00049C
:1056B0000022218B4FEAE57CA1FB05BE02FB05E33E
:1056C00001FB0C334FEADB1141EA4361401842EB26
:1056D000E312CDE90802608A4FEAC0304246E18A0F
:1056E0004FEAE57CA1FB05BE02FB05E301FB0C33A1
:1056F0004FEA1B2141EA0361401842EB2322CDE926
:105700000602A08B42464FEAE573A0FB051C02FB94
:1057100005C200FB03204FEA402242EAD1504FF479
:10572000FA614718B7F5FA6F19DAA7F5FA66764302
:1057300006EB86004FEA600806EB86004FEAA009F8
:10574000544887420BDA07F2DC567643072000FB09
:10575000068806EB460000EBC60009EB6009DDE9B0
:105760000801B0EB080061EBE871CDE90801DDE963
:105770000601B0EB090061EBE971CDE906014FF0DC
:105780000003E168DDE9062CA1FB020B03FB02B27A
:1057900001FB0C224FEA505141EAC22C4FEA625100
:1057A000DDE90802BCEB000061EB0201C00B40EA3E
:1057B000414A504605F012FA3749019005F0B2F817
:1057C0008346364802905846029903F089FE4FF00E
:1057D0007E51039005F090FB3149049005F05EFA8C
:1057E000059005F095F98246606818B16068AAEBEB
:1057F000000020602B480078B0B12A480078401E95
:105800002849087008460078C82804DA2648006845
:105810005044254908602348007828B92248006888
:10582000C72190FBF1F060600BB0BDE8F08F38B598
:105830000446032004F123030022EE2100902046B9
:10584000FFF79EFB38BD10B504461848006860B1EC
:105850002046FFF7ECFF2046FFF7A6FE2046FFF7A5
:1058600004FF00201149086008E02046FFF7F1FE20
:105870002046FFF7E5FE01200C49086010BD0146F7
:105880000868704710B50A4C2046FFF7E5F9044652
:1058900000BF10BD24FAFFFF80E6C547B1DC423EE1
:1058A000D048874A900000208C000020880000200B
:1058B0007C0600202DE9F04105460E461446284698
:1058C00000F000FB3146284600F0CAFA07462146A0
:1058D000284600F0C5FA284600F0ECFA3846BDE844
:1058E000F0812DE9F0470746884615461E463846A2
:1058F00000F0E8FA4146384600F0B2FA814600244A
:1059000005E0295D384600F0ABFA601CC4B2B44231
:10591000F7DB384600F0CEFA4846BDE8F08770B5B0
:1059200005460C461646284600F0BCFA05239C4A5C
:105930002A212846FFF7D5FF05239A4A3021284619
:10594000FFF7CFFF012221212846FFF7B3FF0122F5
:1059500022212846FFF7AEFF1A2224212846FFF70E
:10596000A9FF324625212846FFF7A4FF0F22262152
:105970002846FFF79FFF012C0AD1FF22312128463C
:10598000FFF798FF0F2220212846FFF793FF51E0F1
:10599000022C0AD1FF2231212846FFF78BFF0E226D
:1059A00020212846FFF786FF44E0032C21D1FF2267
:1059B000E1212846FFF77EFFFF22E2212846FFF77C
:1059C00079FF0F2220212846FFF774FF5021284637
:1059D00000F046FA7321284600F042FA01223C21E9
:1059E0002846FFF767FF06223D212846FFF762FFA2
:1059F00020E00E2220212846FFF75CFFFF22E12154
:105A00002846FFF757FFFF22E2212846FFF752FF03
:105A10005021284600F024FA7321284600F020FA8D
:105A200001223C212846FFF745FF06223D2128465A
:105A3000FFF740FF284600F02DFA70BD70B506460E
:105A40000C461546304600F02DFA0523554A2A210A
:105A50003046FFF746FF2B462246A0213046FFF78F
:105A600040FF304600F016FA70BD70B506460C4691
:105A70001546304600F016FA2B462246A82130463D
:105A8000FFF72FFF304600F005FA70BD2DE9F04713
:105A90000746884615461E46384600F013FA41462A
:105AA000384600F0DDF98146002406E00021384642
:105AB00000F0D6F92855601CC4B2B442F6DB384673
:105AC00000F0F8F94846BDE8F0877CB505460523A7
:105AD000344A30212846FFF704FF05236A46102187
